{
	"contracts/rps.sol": {
		"RockPaperScissors": {
			"abi": [
				{
					"inputs": [],
					"stateMutability": "nonpayable",
					"type": "constructor"
				},
				{
					"anonymous": false,
					"inputs": [
						{
							"indexed": true,
							"internalType": "address",
							"name": "player",
							"type": "address"
						},
						{
							"indexed": false,
							"internalType": "enum RockPaperScissors.Choices",
							"name": "choice",
							"type": "uint8"
						},
						{
							"indexed": false,
							"internalType": "string",
							"name": "result",
							"type": "string"
						}
					],
					"name": "GameResult",
					"type": "event"
				},
				{
					"inputs": [],
					"name": "betAmount",
					"outputs": [
						{
							"internalType": "uint256",
							"name": "",
							"type": "uint256"
						}
					],
					"stateMutability": "view",
					"type": "function"
				},
				{
					"inputs": [],
					"name": "owner",
					"outputs": [
						{
							"internalType": "address",
							"name": "",
							"type": "address"
						}
					],
					"stateMutability": "view",
					"type": "function"
				},
				{
					"inputs": [
						{
							"internalType": "uint256",
							"name": "choice",
							"type": "uint256"
						}
					],
					"name": "play",
					"outputs": [],
					"stateMutability": "payable",
					"type": "function"
				},
				{
					"inputs": [],
					"name": "player1",
					"outputs": [
						{
							"internalType": "address",
							"name": "",
							"type": "address"
						}
					],
					"stateMutability": "view",
					"type": "function"
				},
				{
					"inputs": [],
					"name": "player1Choice",
					"outputs": [
						{
							"internalType": "uint256",
							"name": "",
							"type": "uint256"
						}
					],
					"stateMutability": "view",
					"type": "function"
				},
				{
					"inputs": [],
					"name": "player2",
					"outputs": [
						{
							"internalType": "address",
							"name": "",
							"type": "address"
						}
					],
					"stateMutability": "view",
					"type": "function"
				},
				{
					"inputs": [],
					"name": "player2Choice",
					"outputs": [
						{
							"internalType": "uint256",
							"name": "",
							"type": "uint256"
						}
					],
					"stateMutability": "view",
					"type": "function"
				},
				{
					"inputs": [],
					"name": "winner",
					"outputs": [
						{
							"internalType": "address",
							"name": "",
							"type": "address"
						}
					],
					"stateMutability": "view",
					"type": "function"
				}
			],
			"devdoc": {
				"kind": "dev",
				"methods": {},
				"version": 1
			},
			"evm": {
				"assembly": "    /* \"contracts/rps.sol\":60:2820  contract RockPaperScissors {... */\n  mstore(0x40, 0x80)\n    /* \"contracts/rps.sol\":203:215  0.0001 ether */\n  0x5af3107a4000\n    /* \"contracts/rps.sol\":179:215  uint public betAmount = 0.0001 ether */\n  0x03\n  sstore\n    /* \"contracts/rps.sol\":500:551  constructor() {... */\n  callvalue\n  dup1\n  iszero\n  tag_1\n  jumpi\n  0x00\n  dup1\n  revert\ntag_1:\n  pop\n    /* \"contracts/rps.sol\":533:543  msg.sender */\n  caller\n    /* \"contracts/rps.sol\":525:530  owner */\n  0x00\n  dup1\n    /* \"contracts/rps.sol\":525:543  owner = msg.sender */\n  0x0100\n  exp\n  dup2\n  sload\n  dup2\n  0xffffffffffffffffffffffffffffffffffffffff\n  mul\n  not\n  and\n  swap1\n  dup4\n  0xffffffffffffffffffffffffffffffffffffffff\n  and\n  mul\n  or\n  swap1\n  sstore\n  pop\n    /* \"contracts/rps.sol\":60:2820  contract RockPaperScissors {... */\n  dataSize(sub_0)\n  dup1\n  dataOffset(sub_0)\n  0x00\n  codecopy\n  0x00\n  return\nstop\n\nsub_0: assembly {\n        /* \"contracts/rps.sol\":60:2820  contract RockPaperScissors {... */\n      mstore(0x40, 0x80)\n      jumpi(tag_1, lt(calldatasize, 0x04))\n      shr(0xe0, calldataload(0x00))\n      dup1\n      0xd24257c0\n      gt\n      tag_10\n      jumpi\n      dup1\n      0xd24257c0\n      eq\n      tag_6\n      jumpi\n      dup1\n      0xd30895e4\n      eq\n      tag_7\n      jumpi\n      dup1\n      0xd8b1f219\n      eq\n      tag_8\n      jumpi\n      dup1\n      0xdfbf53ae\n      eq\n      tag_9\n      jumpi\n      jump(tag_1)\n    tag_10:\n      dup1\n      0x0ce6e680\n      eq\n      tag_2\n      jumpi\n      dup1\n      0x59a5f12d\n      eq\n      tag_3\n      jumpi\n      dup1\n      0x6898f82b\n      eq\n      tag_4\n      jumpi\n      dup1\n      0x8da5cb5b\n      eq\n      tag_5\n      jumpi\n    tag_1:\n      0x00\n      dup1\n      revert\n        /* \"contracts/rps.sol\":254:279  uint public player2Choice */\n    tag_2:\n      callvalue\n      dup1\n      iszero\n      tag_11\n      jumpi\n      0x00\n      dup1\n      revert\n    tag_11:\n      pop\n      tag_12\n      tag_13\n      jump\t// in\n    tag_12:\n      mload(0x40)\n      tag_14\n      swap2\n      swap1\n      tag_15\n      jump\t// in\n    tag_14:\n      mload(0x40)\n      dup1\n      swap2\n      sub\n      swap1\n      return\n        /* \"contracts/rps.sol\":150:172  address public player2 */\n    tag_3:\n      callvalue\n      dup1\n      iszero\n      tag_16\n      jumpi\n      0x00\n      dup1\n      revert\n    tag_16:\n      pop\n      tag_17\n      tag_18\n      jump\t// in\n    tag_17:\n      mload(0x40)\n      tag_19\n      swap2\n      swap1\n      tag_20\n      jump\t// in\n    tag_19:\n      mload(0x40)\n      dup1\n      swap2\n      sub\n      swap1\n      return\n        /* \"contracts/rps.sol\":559:1145  function play(uint choice) public payable {... */\n    tag_4:\n      tag_21\n      0x04\n      dup1\n      calldatasize\n      sub\n      dup2\n      add\n      swap1\n      tag_22\n      swap2\n      swap1\n      tag_23\n      jump\t// in\n    tag_22:\n      tag_24\n      jump\t// in\n    tag_21:\n      stop\n        /* \"contracts/rps.sol\":94:114  address public owner */\n    tag_5:\n      callvalue\n      dup1\n      iszero\n      tag_25\n      jumpi\n      0x00\n      dup1\n      revert\n    tag_25:\n      pop\n      tag_26\n      tag_27\n      jump\t// in\n    tag_26:\n      mload(0x40)\n      tag_28\n      swap2\n      swap1\n      tag_20\n      jump\t// in\n    tag_28:\n      mload(0x40)\n      dup1\n      swap2\n      sub\n      swap1\n      return\n        /* \"contracts/rps.sol\":179:215  uint public betAmount = 0.0001 ether */\n    tag_6:\n      callvalue\n      dup1\n      iszero\n      tag_29\n      jumpi\n      0x00\n      dup1\n      revert\n    tag_29:\n      pop\n      tag_30\n      tag_31\n      jump\t// in\n    tag_30:\n      mload(0x40)\n      tag_32\n      swap2\n      swap1\n      tag_15\n      jump\t// in\n    tag_32:\n      mload(0x40)\n      dup1\n      swap2\n      sub\n      swap1\n      return\n        /* \"contracts/rps.sol\":121:143  address public player1 */\n    tag_7:\n      callvalue\n      dup1\n      iszero\n      tag_33\n      jumpi\n      0x00\n      dup1\n      revert\n    tag_33:\n      pop\n      tag_34\n      tag_35\n      jump\t// in\n    tag_34:\n      mload(0x40)\n      tag_36\n      swap2\n      swap1\n      tag_20\n      jump\t// in\n    tag_36:\n      mload(0x40)\n      dup1\n      swap2\n      sub\n      swap1\n      return\n        /* \"contracts/rps.sol\":222:247  uint public player1Choice */\n    tag_8:\n      callvalue\n      dup1\n      iszero\n      tag_37\n      jumpi\n      0x00\n      dup1\n      revert\n    tag_37:\n      pop\n      tag_38\n      tag_39\n      jump\t// in\n    tag_38:\n      mload(0x40)\n      tag_40\n      swap2\n      swap1\n      tag_15\n      jump\t// in\n    tag_40:\n      mload(0x40)\n      dup1\n      swap2\n      sub\n      swap1\n      return\n        /* \"contracts/rps.sol\":286:307  address public winner */\n    tag_9:\n      callvalue\n      dup1\n      iszero\n      tag_41\n      jumpi\n      0x00\n      dup1\n      revert\n    tag_41:\n      pop\n      tag_42\n      tag_43\n      jump\t// in\n    tag_42:\n      mload(0x40)\n      tag_44\n      swap2\n      swap1\n      tag_20\n      jump\t// in\n    tag_44:\n      mload(0x40)\n      dup1\n      swap2\n      sub\n      swap1\n      return\n        /* \"contracts/rps.sol\":254:279  uint public player2Choice */\n    tag_13:\n      sload(0x05)\n      dup2\n      jump\t// out\n        /* \"contracts/rps.sol\":150:172  address public player2 */\n    tag_18:\n      0x02\n      0x00\n      swap1\n      sload\n      swap1\n      0x0100\n      exp\n      swap1\n      div\n      0xffffffffffffffffffffffffffffffffffffffff\n      and\n      dup2\n      jump\t// out\n        /* \"contracts/rps.sol\":559:1145  function play(uint choice) public payable {... */\n    tag_24:\n        /* \"contracts/rps.sol\":634:639  owner */\n      0x00\n      dup1\n      sload\n      swap1\n      0x0100\n      exp\n      swap1\n      div\n      0xffffffffffffffffffffffffffffffffffffffff\n      and\n        /* \"contracts/rps.sol\":620:639  msg.sender != owner */\n      0xffffffffffffffffffffffffffffffffffffffff\n      and\n        /* \"contracts/rps.sol\":620:630  msg.sender */\n      caller\n        /* \"contracts/rps.sol\":620:639  msg.sender != owner */\n      0xffffffffffffffffffffffffffffffffffffffff\n      and\n      sub\n        /* \"contracts/rps.sol\":612:661  require(msg.sender != owner, \"Owner cannot play\") */\n      tag_46\n      jumpi\n      mload(0x40)\n      0x08c379a000000000000000000000000000000000000000000000000000000000\n      dup2\n      mstore\n      0x04\n      add\n      tag_47\n      swap1\n      tag_48\n      jump\t// in\n    tag_47:\n      mload(0x40)\n      dup1\n      swap2\n      sub\n      swap1\n      revert\n    tag_46:\n        /* \"contracts/rps.sol\":693:702  betAmount */\n      sload(0x03)\n        /* \"contracts/rps.sol\":680:689  msg.value */\n      callvalue\n        /* \"contracts/rps.sol\":680:702  msg.value == betAmount */\n      eq\n        /* \"contracts/rps.sol\":672:727  require(msg.value == betAmount, \"Incorrect bet amount\") */\n      tag_49\n      jumpi\n      mload(0x40)\n      0x08c379a000000000000000000000000000000000000000000000000000000000\n      dup2\n      mstore\n      0x04\n      add\n      tag_50\n      swap1\n      tag_51\n      jump\t// in\n    tag_50:\n      mload(0x40)\n      dup1\n      swap2\n      sub\n      swap1\n      revert\n    tag_49:\n        /* \"contracts/rps.sol\":765:766  0 */\n      0x00\n        /* \"contracts/rps.sol\":746:767  player1 == address(0) */\n      0xffffffffffffffffffffffffffffffffffffffff\n      and\n        /* \"contracts/rps.sol\":746:753  player1 */\n      0x01\n      0x00\n      swap1\n      sload\n      swap1\n      0x0100\n      exp\n      swap1\n      div\n      0xffffffffffffffffffffffffffffffffffffffff\n      and\n        /* \"contracts/rps.sol\":746:767  player1 == address(0) */\n      0xffffffffffffffffffffffffffffffffffffffff\n      and\n      eq\n        /* \"contracts/rps.sol\":746:792  player1 == address(0) || player2 == address(0) */\n      dup1\n      tag_52\n      jumpi\n      pop\n        /* \"contracts/rps.sol\":790:791  0 */\n      0x00\n        /* \"contracts/rps.sol\":771:792  player2 == address(0) */\n      0xffffffffffffffffffffffffffffffffffffffff\n      and\n        /* \"contracts/rps.sol\":771:778  player2 */\n      0x02\n      0x00\n      swap1\n      sload\n      swap1\n      0x0100\n      exp\n      swap1\n      div\n      0xffffffffffffffffffffffffffffffffffffffff\n      and\n        /* \"contracts/rps.sol\":771:792  player2 == address(0) */\n      0xffffffffffffffffffffffffffffffffffffffff\n      and\n      eq\n        /* \"contracts/rps.sol\":746:792  player1 == address(0) || player2 == address(0) */\n    tag_52:\n        /* \"contracts/rps.sol\":738:809  require(player1 == address(0) || player2 == address(0), \"Game is full\") */\n      tag_53\n      jumpi\n      mload(0x40)\n      0x08c379a000000000000000000000000000000000000000000000000000000000\n      dup2\n      mstore\n      0x04\n      add\n      tag_54\n      swap1\n      tag_55\n      jump\t// in\n    tag_54:\n      mload(0x40)\n      dup1\n      swap2\n      sub\n      swap1\n      revert\n    tag_53:\n        /* \"contracts/rps.sol\":839:849  msg.sender */\n      caller\n        /* \"contracts/rps.sol\":828:849  player1 != msg.sender */\n      0xffffffffffffffffffffffffffffffffffffffff\n      and\n        /* \"contracts/rps.sol\":828:835  player1 */\n      0x01\n      0x00\n      swap1\n      sload\n      swap1\n      0x0100\n      exp\n      swap1\n      div\n      0xffffffffffffffffffffffffffffffffffffffff\n      and\n        /* \"contracts/rps.sol\":828:849  player1 != msg.sender */\n      0xffffffffffffffffffffffffffffffffffffffff\n      and\n      eq\n      iszero\n        /* \"contracts/rps.sol\":828:874  player1 != msg.sender && player2 != msg.sender */\n      dup1\n      iszero\n      tag_56\n      jumpi\n      pop\n        /* \"contracts/rps.sol\":864:874  msg.sender */\n      caller\n        /* \"contracts/rps.sol\":853:874  player2 != msg.sender */\n      0xffffffffffffffffffffffffffffffffffffffff\n      and\n        /* \"contracts/rps.sol\":853:860  player2 */\n      0x02\n      0x00\n      swap1\n      sload\n      swap1\n      0x0100\n      exp\n      swap1\n      div\n      0xffffffffffffffffffffffffffffffffffffffff\n      and\n        /* \"contracts/rps.sol\":853:874  player2 != msg.sender */\n      0xffffffffffffffffffffffffffffffffffffffff\n      and\n      eq\n      iszero\n        /* \"contracts/rps.sol\":828:874  player1 != msg.sender && player2 != msg.sender */\n    tag_56:\n        /* \"contracts/rps.sol\":820:896  require(player1 != msg.sender && player2 != msg.sender, \"Cannot play twice\") */\n      tag_57\n      jumpi\n      mload(0x40)\n      0x08c379a000000000000000000000000000000000000000000000000000000000\n      dup2\n      mstore\n      0x04\n      add\n      tag_58\n      swap1\n      tag_59\n      jump\t// in\n    tag_58:\n      mload(0x40)\n      dup1\n      swap2\n      sub\n      swap1\n      revert\n    tag_57:\n        /* \"contracts/rps.sol\":932:933  0 */\n      0x00\n        /* \"contracts/rps.sol\":913:934  player1 == address(0) */\n      0xffffffffffffffffffffffffffffffffffffffff\n      and\n        /* \"contracts/rps.sol\":913:920  player1 */\n      0x01\n      0x00\n      swap1\n      sload\n      swap1\n      0x0100\n      exp\n      swap1\n      div\n      0xffffffffffffffffffffffffffffffffffffffff\n      and\n        /* \"contracts/rps.sol\":913:934  player1 == address(0) */\n      0xffffffffffffffffffffffffffffffffffffffff\n      and\n      sub\n        /* \"contracts/rps.sol\":909:1138  if (player1 == address(0)) {... */\n      tag_60\n      jumpi\n        /* \"contracts/rps.sol\":961:971  msg.sender */\n      caller\n        /* \"contracts/rps.sol\":951:958  player1 */\n      0x01\n      0x00\n        /* \"contracts/rps.sol\":951:971  player1 = msg.sender */\n      0x0100\n      exp\n      dup2\n      sload\n      dup2\n      0xffffffffffffffffffffffffffffffffffffffff\n      mul\n      not\n      and\n      swap1\n      dup4\n      0xffffffffffffffffffffffffffffffffffffffff\n      and\n      mul\n      or\n      swap1\n      sstore\n      pop\n        /* \"contracts/rps.sol\":1002:1008  choice */\n      dup1\n        /* \"contracts/rps.sol\":986:999  player1Choice */\n      0x04\n        /* \"contracts/rps.sol\":986:1008  player1Choice = choice */\n      dup2\n      swap1\n      sstore\n      pop\n        /* \"contracts/rps.sol\":909:1138  if (player1 == address(0)) {... */\n      jump(tag_61)\n    tag_60:\n        /* \"contracts/rps.sol\":1051:1061  msg.sender */\n      caller\n        /* \"contracts/rps.sol\":1041:1048  player2 */\n      0x02\n      0x00\n        /* \"contracts/rps.sol\":1041:1061  player2 = msg.sender */\n      0x0100\n      exp\n      dup2\n      sload\n      dup2\n      0xffffffffffffffffffffffffffffffffffffffff\n      mul\n      not\n      and\n      swap1\n      dup4\n      0xffffffffffffffffffffffffffffffffffffffff\n      and\n      mul\n      or\n      swap1\n      sstore\n      pop\n        /* \"contracts/rps.sol\":1092:1098  choice */\n      dup1\n        /* \"contracts/rps.sol\":1076:1089  player2Choice */\n      0x05\n        /* \"contracts/rps.sol\":1076:1098  player2Choice = choice */\n      dup2\n      swap1\n      sstore\n      pop\n        /* \"contracts/rps.sol\":1113:1126  resolveGame() */\n      tag_62\n        /* \"contracts/rps.sol\":1113:1124  resolveGame */\n      tag_63\n        /* \"contracts/rps.sol\":1113:1126  resolveGame() */\n      jump\t// in\n    tag_62:\n        /* \"contracts/rps.sol\":909:1138  if (player1 == address(0)) {... */\n    tag_61:\n        /* \"contracts/rps.sol\":559:1145  function play(uint choice) public payable {... */\n      pop\n      jump\t// out\n        /* \"contracts/rps.sol\":94:114  address public owner */\n    tag_27:\n      0x00\n      dup1\n      sload\n      swap1\n      0x0100\n      exp\n      swap1\n      div\n      0xffffffffffffffffffffffffffffffffffffffff\n      and\n      dup2\n      jump\t// out\n        /* \"contracts/rps.sol\":179:215  uint public betAmount = 0.0001 ether */\n    tag_31:\n      sload(0x03)\n      dup2\n      jump\t// out\n        /* \"contracts/rps.sol\":121:143  address public player1 */\n    tag_35:\n      0x01\n      0x00\n      swap1\n      sload\n      swap1\n      0x0100\n      exp\n      swap1\n      div\n      0xffffffffffffffffffffffffffffffffffffffff\n      and\n      dup2\n      jump\t// out\n        /* \"contracts/rps.sol\":222:247  uint public player1Choice */\n    tag_39:\n      sload(0x04)\n      dup2\n      jump\t// out\n        /* \"contracts/rps.sol\":286:307  address public winner */\n    tag_43:\n      0x06\n      0x00\n      swap1\n      sload\n      swap1\n      0x0100\n      exp\n      swap1\n      div\n      0xffffffffffffffffffffffffffffffffffffffff\n      and\n      dup2\n      jump\t// out\n        /* \"contracts/rps.sol\":1153:2452  function resolveGame() private {... */\n    tag_63:\n        /* \"contracts/rps.sol\":1222:1223  0 */\n      0x00\n        /* \"contracts/rps.sol\":1203:1224  player1 != address(0) */\n      0xffffffffffffffffffffffffffffffffffffffff\n      and\n        /* \"contracts/rps.sol\":1203:1210  player1 */\n      0x01\n      0x00\n      swap1\n      sload\n      swap1\n      0x0100\n      exp\n      swap1\n      div\n      0xffffffffffffffffffffffffffffffffffffffff\n      and\n        /* \"contracts/rps.sol\":1203:1224  player1 != address(0) */\n      0xffffffffffffffffffffffffffffffffffffffff\n      and\n      eq\n      iszero\n        /* \"contracts/rps.sol\":1203:1249  player1 != address(0) && player2 != address(0) */\n      dup1\n      iszero\n      tag_65\n      jumpi\n      pop\n        /* \"contracts/rps.sol\":1247:1248  0 */\n      0x00\n        /* \"contracts/rps.sol\":1228:1249  player2 != address(0) */\n      0xffffffffffffffffffffffffffffffffffffffff\n      and\n        /* \"contracts/rps.sol\":1228:1235  player2 */\n      0x02\n      0x00\n      swap1\n      sload\n      swap1\n      0x0100\n      exp\n      swap1\n      div\n      0xffffffffffffffffffffffffffffffffffffffff\n      and\n        /* \"contracts/rps.sol\":1228:1249  player2 != address(0) */\n      0xffffffffffffffffffffffffffffffffffffffff\n      and\n      eq\n      iszero\n        /* \"contracts/rps.sol\":1203:1249  player1 != address(0) && player2 != address(0) */\n    tag_65:\n        /* \"contracts/rps.sol\":1195:1282  require(player1 != address(0) && player2 != address(0), \"Game is not ready to resolve\") */\n      tag_66\n      jumpi\n      mload(0x40)\n      0x08c379a000000000000000000000000000000000000000000000000000000000\n      dup2\n      mstore\n      0x04\n      add\n      tag_67\n      swap1\n      tag_68\n      jump\t// in\n    tag_67:\n      mload(0x40)\n      dup1\n      swap2\n      sub\n      swap1\n      revert\n    tag_66:\n        /* \"contracts/rps.sol\":1316:1329  player2Choice */\n      sload(0x05)\n        /* \"contracts/rps.sol\":1299:1312  player1Choice */\n      sload(0x04)\n        /* \"contracts/rps.sol\":1299:1329  player1Choice == player2Choice */\n      sub\n        /* \"contracts/rps.sol\":1295:2421  if (player1Choice == player2Choice) {... */\n      tag_69\n      jumpi\n        /* \"contracts/rps.sol\":1363:1364  0 */\n      0x00\n        /* \"contracts/rps.sol\":1346:1352  winner */\n      0x06\n      0x00\n        /* \"contracts/rps.sol\":1346:1365  winner = address(0) */\n      0x0100\n      exp\n      dup2\n      sload\n      dup2\n      0xffffffffffffffffffffffffffffffffffffffff\n      mul\n      not\n      and\n      swap1\n      dup4\n      0xffffffffffffffffffffffffffffffffffffffff\n      and\n      mul\n      or\n      swap1\n      sstore\n      pop\n        /* \"contracts/rps.sol\":1396:1403  player1 */\n      0x01\n      0x00\n      swap1\n      sload\n      swap1\n      0x0100\n      exp\n      swap1\n      div\n      0xffffffffffffffffffffffffffffffffffffffff\n      and\n        /* \"contracts/rps.sol\":1385:1436  GameResult(player1, Choices(player1Choice), \"Draw\") */\n      0xffffffffffffffffffffffffffffffffffffffff\n      and\n      0x13e9967b536f6769cc425109ba739c9d24faa62d05db2e1838c411f709fdb18f\n        /* \"contracts/rps.sol\":1413:1426  player1Choice */\n      sload(0x04)\n        /* \"contracts/rps.sol\":1405:1427  Choices(player1Choice) */\n      0x03\n      dup2\n      gt\n      iszero\n      tag_70\n      jumpi\n      tag_71\n      tag_72\n      jump\t// in\n    tag_71:\n    tag_70:\n        /* \"contracts/rps.sol\":1385:1436  GameResult(player1, Choices(player1Choice), \"Draw\") */\n      mload(0x40)\n      tag_73\n      swap2\n      swap1\n      tag_74\n      jump\t// in\n    tag_73:\n      mload(0x40)\n      dup1\n      swap2\n      sub\n      swap1\n      log2\n        /* \"contracts/rps.sol\":1467:1474  player2 */\n      0x02\n      0x00\n      swap1\n      sload\n      swap1\n      0x0100\n      exp\n      swap1\n      div\n      0xffffffffffffffffffffffffffffffffffffffff\n      and\n        /* \"contracts/rps.sol\":1456:1507  GameResult(player2, Choices(player2Choice), \"Draw\") */\n      0xffffffffffffffffffffffffffffffffffffffff\n      and\n      0x13e9967b536f6769cc425109ba739c9d24faa62d05db2e1838c411f709fdb18f\n        /* \"contracts/rps.sol\":1484:1497  player2Choice */\n      sload(0x05)\n        /* \"contracts/rps.sol\":1476:1498  Choices(player2Choice) */\n      0x03\n      dup2\n      gt\n      iszero\n      tag_75\n      jumpi\n      tag_76\n      tag_72\n      jump\t// in\n    tag_76:\n    tag_75:\n        /* \"contracts/rps.sol\":1456:1507  GameResult(player2, Choices(player2Choice), \"Draw\") */\n      mload(0x40)\n      tag_77\n      swap2\n      swap1\n      tag_74\n      jump\t// in\n    tag_77:\n      mload(0x40)\n      dup1\n      swap2\n      sub\n      swap1\n      log2\n        /* \"contracts/rps.sol\":1522:1560  payWinner(payable(player1), betAmount) */\n      tag_78\n        /* \"contracts/rps.sol\":1540:1547  player1 */\n      0x01\n      0x00\n      swap1\n      sload\n      swap1\n      0x0100\n      exp\n      swap1\n      div\n      0xffffffffffffffffffffffffffffffffffffffff\n      and\n        /* \"contracts/rps.sol\":1550:1559  betAmount */\n      sload(0x03)\n        /* \"contracts/rps.sol\":1522:1531  payWinner */\n      tag_79\n        /* \"contracts/rps.sol\":1522:1560  payWinner(payable(player1), betAmount) */\n      jump\t// in\n    tag_78:\n        /* \"contracts/rps.sol\":1575:1613  payWinner(payable(player2), betAmount) */\n      tag_80\n        /* \"contracts/rps.sol\":1593:1600  player2 */\n      0x02\n      0x00\n      swap1\n      sload\n      swap1\n      0x0100\n      exp\n      swap1\n      div\n      0xffffffffffffffffffffffffffffffffffffffff\n      and\n        /* \"contracts/rps.sol\":1603:1612  betAmount */\n      sload(0x03)\n        /* \"contracts/rps.sol\":1575:1584  payWinner */\n      tag_79\n        /* \"contracts/rps.sol\":1575:1613  payWinner(payable(player2), betAmount) */\n      jump\t// in\n    tag_80:\n        /* \"contracts/rps.sol\":1295:2421  if (player1Choice == player2Choice) {... */\n      jump(tag_81)\n    tag_69:\n        /* \"contracts/rps.sol\":1672:1684  Choices.Rock */\n      0x01\n        /* \"contracts/rps.sol\":1667:1685  uint(Choices.Rock) */\n      0x03\n      dup2\n      gt\n      iszero\n      tag_82\n      jumpi\n      tag_83\n      tag_72\n      jump\t// in\n    tag_83:\n    tag_82:\n        /* \"contracts/rps.sol\":1650:1663  player1Choice */\n      sload(0x04)\n        /* \"contracts/rps.sol\":1650:1685  player1Choice == uint(Choices.Rock) */\n      eq\n        /* \"contracts/rps.sol\":1650:1728  player1Choice == uint(Choices.Rock) && player2Choice == uint(Choices.Scissors) */\n      dup1\n      iszero\n      tag_84\n      jumpi\n      pop\n        /* \"contracts/rps.sol\":1711:1727  Choices.Scissors */\n      0x03\n        /* \"contracts/rps.sol\":1706:1728  uint(Choices.Scissors) */\n      dup1\n      dup2\n      gt\n      iszero\n      tag_85\n      jumpi\n      tag_86\n      tag_72\n      jump\t// in\n    tag_86:\n    tag_85:\n        /* \"contracts/rps.sol\":1689:1702  player2Choice */\n      sload(0x05)\n        /* \"contracts/rps.sol\":1689:1728  player2Choice == uint(Choices.Scissors) */\n      eq\n        /* \"contracts/rps.sol\":1650:1728  player1Choice == uint(Choices.Rock) && player2Choice == uint(Choices.Scissors) */\n    tag_84:\n        /* \"contracts/rps.sol\":1649:1823  (player1Choice == uint(Choices.Rock) && player2Choice == uint(Choices.Scissors)) ||... */\n      dup1\n      tag_87\n      jumpi\n      pop\n        /* \"contracts/rps.sol\":1769:1782  Choices.Paper */\n      0x02\n        /* \"contracts/rps.sol\":1764:1783  uint(Choices.Paper) */\n      0x03\n      dup2\n      gt\n      iszero\n      tag_88\n      jumpi\n      tag_89\n      tag_72\n      jump\t// in\n    tag_89:\n    tag_88:\n        /* \"contracts/rps.sol\":1747:1760  player1Choice */\n      sload(0x04)\n        /* \"contracts/rps.sol\":1747:1783  player1Choice == uint(Choices.Paper) */\n      eq\n        /* \"contracts/rps.sol\":1747:1822  player1Choice == uint(Choices.Paper) && player2Choice == uint(Choices.Rock) */\n      dup1\n      iszero\n      tag_90\n      jumpi\n      pop\n        /* \"contracts/rps.sol\":1809:1821  Choices.Rock */\n      0x01\n        /* \"contracts/rps.sol\":1804:1822  uint(Choices.Rock) */\n      0x03\n      dup2\n      gt\n      iszero\n      tag_91\n      jumpi\n      tag_92\n      tag_72\n      jump\t// in\n    tag_92:\n    tag_91:\n        /* \"contracts/rps.sol\":1787:1800  player2Choice */\n      sload(0x05)\n        /* \"contracts/rps.sol\":1787:1822  player2Choice == uint(Choices.Rock) */\n      eq\n        /* \"contracts/rps.sol\":1747:1822  player1Choice == uint(Choices.Paper) && player2Choice == uint(Choices.Rock) */\n    tag_90:\n        /* \"contracts/rps.sol\":1649:1823  (player1Choice == uint(Choices.Rock) && player2Choice == uint(Choices.Scissors)) ||... */\n    tag_87:\n        /* \"contracts/rps.sol\":1649:1921  (player1Choice == uint(Choices.Rock) && player2Choice == uint(Choices.Scissors)) ||... */\n      dup1\n      tag_93\n      jumpi\n      pop\n        /* \"contracts/rps.sol\":1863:1879  Choices.Scissors */\n      0x03\n        /* \"contracts/rps.sol\":1858:1880  uint(Choices.Scissors) */\n      dup1\n      dup2\n      gt\n      iszero\n      tag_94\n      jumpi\n      tag_95\n      tag_72\n      jump\t// in\n    tag_95:\n    tag_94:\n        /* \"contracts/rps.sol\":1841:1854  player1Choice */\n      sload(0x04)\n        /* \"contracts/rps.sol\":1841:1880  player1Choice == uint(Choices.Scissors) */\n      eq\n        /* \"contracts/rps.sol\":1841:1920  player1Choice == uint(Choices.Scissors) && player2Choice == uint(Choices.Paper) */\n      dup1\n      iszero\n      tag_96\n      jumpi\n      pop\n        /* \"contracts/rps.sol\":1906:1919  Choices.Paper */\n      0x02\n        /* \"contracts/rps.sol\":1901:1920  uint(Choices.Paper) */\n      0x03\n      dup2\n      gt\n      iszero\n      tag_97\n      jumpi\n      tag_98\n      tag_72\n      jump\t// in\n    tag_98:\n    tag_97:\n        /* \"contracts/rps.sol\":1884:1897  player2Choice */\n      sload(0x05)\n        /* \"contracts/rps.sol\":1884:1920  player2Choice == uint(Choices.Paper) */\n      eq\n        /* \"contracts/rps.sol\":1841:1920  player1Choice == uint(Choices.Scissors) && player2Choice == uint(Choices.Paper) */\n    tag_96:\n        /* \"contracts/rps.sol\":1649:1921  (player1Choice == uint(Choices.Rock) && player2Choice == uint(Choices.Scissors)) ||... */\n    tag_93:\n        /* \"contracts/rps.sol\":1631:2421  if (... */\n      iszero\n      tag_99\n      jumpi\n        /* \"contracts/rps.sol\":1957:1964  player1 */\n      0x01\n      0x00\n      swap1\n      sload\n      swap1\n      0x0100\n      exp\n      swap1\n      div\n      0xffffffffffffffffffffffffffffffffffffffff\n      and\n        /* \"contracts/rps.sol\":1948:1954  winner */\n      0x06\n      0x00\n        /* \"contracts/rps.sol\":1948:1964  winner = player1 */\n      0x0100\n      exp\n      dup2\n      sload\n      dup2\n      0xffffffffffffffffffffffffffffffffffffffff\n      mul\n      not\n      and\n      swap1\n      dup4\n      0xffffffffffffffffffffffffffffffffffffffff\n      and\n      mul\n      or\n      swap1\n      sstore\n      pop\n        /* \"contracts/rps.sol\":1995:2002  player1 */\n      0x01\n      0x00\n      swap1\n      sload\n      swap1\n      0x0100\n      exp\n      swap1\n      div\n      0xffffffffffffffffffffffffffffffffffffffff\n      and\n        /* \"contracts/rps.sol\":1984:2034  GameResult(player1, Choices(player1Choice), \"Win\") */\n      0xffffffffffffffffffffffffffffffffffffffff\n      and\n      0x13e9967b536f6769cc425109ba739c9d24faa62d05db2e1838c411f709fdb18f\n        /* \"contracts/rps.sol\":2012:2025  player1Choice */\n      sload(0x04)\n        /* \"contracts/rps.sol\":2004:2026  Choices(player1Choice) */\n      0x03\n      dup2\n      gt\n      iszero\n      tag_100\n      jumpi\n      tag_101\n      tag_72\n      jump\t// in\n    tag_101:\n    tag_100:\n        /* \"contracts/rps.sol\":1984:2034  GameResult(player1, Choices(player1Choice), \"Win\") */\n      mload(0x40)\n      tag_102\n      swap2\n      swap1\n      tag_103\n      jump\t// in\n    tag_102:\n      mload(0x40)\n      dup1\n      swap2\n      sub\n      swap1\n      log2\n        /* \"contracts/rps.sol\":2065:2072  player2 */\n      0x02\n      0x00\n      swap1\n      sload\n      swap1\n      0x0100\n      exp\n      swap1\n      div\n      0xffffffffffffffffffffffffffffffffffffffff\n      and\n        /* \"contracts/rps.sol\":2054:2105  GameResult(player2, Choices(player2Choice), \"Lose\") */\n      0xffffffffffffffffffffffffffffffffffffffff\n      and\n      0x13e9967b536f6769cc425109ba739c9d24faa62d05db2e1838c411f709fdb18f\n        /* \"contracts/rps.sol\":2082:2095  player2Choice */\n      sload(0x05)\n        /* \"contracts/rps.sol\":2074:2096  Choices(player2Choice) */\n      0x03\n      dup2\n      gt\n      iszero\n      tag_104\n      jumpi\n      tag_105\n      tag_72\n      jump\t// in\n    tag_105:\n    tag_104:\n        /* \"contracts/rps.sol\":2054:2105  GameResult(player2, Choices(player2Choice), \"Lose\") */\n      mload(0x40)\n      tag_106\n      swap2\n      swap1\n      tag_107\n      jump\t// in\n    tag_106:\n      mload(0x40)\n      dup1\n      swap2\n      sub\n      swap1\n      log2\n        /* \"contracts/rps.sol\":2120:2162  payWinner(payable(player1), 2 * betAmount) */\n      tag_108\n        /* \"contracts/rps.sol\":2138:2145  player1 */\n      0x01\n      0x00\n      swap1\n      sload\n      swap1\n      0x0100\n      exp\n      swap1\n      div\n      0xffffffffffffffffffffffffffffffffffffffff\n      and\n        /* \"contracts/rps.sol\":2152:2161  betAmount */\n      sload(0x03)\n        /* \"contracts/rps.sol\":2148:2149  2 */\n      0x02\n        /* \"contracts/rps.sol\":2148:2161  2 * betAmount */\n      tag_109\n      swap2\n      swap1\n      tag_110\n      jump\t// in\n    tag_109:\n        /* \"contracts/rps.sol\":2120:2129  payWinner */\n      tag_79\n        /* \"contracts/rps.sol\":2120:2162  payWinner(payable(player1), 2 * betAmount) */\n      jump\t// in\n    tag_108:\n        /* \"contracts/rps.sol\":1631:2421  if (... */\n      jump(tag_111)\n    tag_99:\n        /* \"contracts/rps.sol\":2204:2211  player2 */\n      0x02\n      0x00\n      swap1\n      sload\n      swap1\n      0x0100\n      exp\n      swap1\n      div\n      0xffffffffffffffffffffffffffffffffffffffff\n      and\n        /* \"contracts/rps.sol\":2195:2201  winner */\n      0x06\n      0x00\n        /* \"contracts/rps.sol\":2195:2211  winner = player2 */\n      0x0100\n      exp\n      dup2\n      sload\n      dup2\n      0xffffffffffffffffffffffffffffffffffffffff\n      mul\n      not\n      and\n      swap1\n      dup4\n      0xffffffffffffffffffffffffffffffffffffffff\n      and\n      mul\n      or\n      swap1\n      sstore\n      pop\n        /* \"contracts/rps.sol\":2242:2249  player1 */\n      0x01\n      0x00\n      swap1\n      sload\n      swap1\n      0x0100\n      exp\n      swap1\n      div\n      0xffffffffffffffffffffffffffffffffffffffff\n      and\n        /* \"contracts/rps.sol\":2231:2282  GameResult(player1, Choices(player1Choice), \"Lose\") */\n      0xffffffffffffffffffffffffffffffffffffffff\n      and\n      0x13e9967b536f6769cc425109ba739c9d24faa62d05db2e1838c411f709fdb18f\n        /* \"contracts/rps.sol\":2259:2272  player1Choice */\n      sload(0x04)\n        /* \"contracts/rps.sol\":2251:2273  Choices(player1Choice) */\n      0x03\n      dup2\n      gt\n      iszero\n      tag_112\n      jumpi\n      tag_113\n      tag_72\n      jump\t// in\n    tag_113:\n    tag_112:\n        /* \"contracts/rps.sol\":2231:2282  GameResult(player1, Choices(player1Choice), \"Lose\") */\n      mload(0x40)\n      tag_114\n      swap2\n      swap1\n      tag_107\n      jump\t// in\n    tag_114:\n      mload(0x40)\n      dup1\n      swap2\n      sub\n      swap1\n      log2\n        /* \"contracts/rps.sol\":2313:2320  player2 */\n      0x02\n      0x00\n      swap1\n      sload\n      swap1\n      0x0100\n      exp\n      swap1\n      div\n      0xffffffffffffffffffffffffffffffffffffffff\n      and\n        /* \"contracts/rps.sol\":2302:2352  GameResult(player2, Choices(player2Choice), \"Win\") */\n      0xffffffffffffffffffffffffffffffffffffffff\n      and\n      0x13e9967b536f6769cc425109ba739c9d24faa62d05db2e1838c411f709fdb18f\n        /* \"contracts/rps.sol\":2330:2343  player2Choice */\n      sload(0x05)\n        /* \"contracts/rps.sol\":2322:2344  Choices(player2Choice) */\n      0x03\n      dup2\n      gt\n      iszero\n      tag_115\n      jumpi\n      tag_116\n      tag_72\n      jump\t// in\n    tag_116:\n    tag_115:\n        /* \"contracts/rps.sol\":2302:2352  GameResult(player2, Choices(player2Choice), \"Win\") */\n      mload(0x40)\n      tag_117\n      swap2\n      swap1\n      tag_103\n      jump\t// in\n    tag_117:\n      mload(0x40)\n      dup1\n      swap2\n      sub\n      swap1\n      log2\n        /* \"contracts/rps.sol\":2367:2409  payWinner(payable(player2), 2 * betAmount) */\n      tag_118\n        /* \"contracts/rps.sol\":2385:2392  player2 */\n      0x02\n      0x00\n      swap1\n      sload\n      swap1\n      0x0100\n      exp\n      swap1\n      div\n      0xffffffffffffffffffffffffffffffffffffffff\n      and\n        /* \"contracts/rps.sol\":2399:2408  betAmount */\n      sload(0x03)\n        /* \"contracts/rps.sol\":2395:2396  2 */\n      0x02\n        /* \"contracts/rps.sol\":2395:2408  2 * betAmount */\n      tag_119\n      swap2\n      swap1\n      tag_110\n      jump\t// in\n    tag_119:\n        /* \"contracts/rps.sol\":2367:2376  payWinner */\n      tag_79\n        /* \"contracts/rps.sol\":2367:2409  payWinner(payable(player2), 2 * betAmount) */\n      jump\t// in\n    tag_118:\n        /* \"contracts/rps.sol\":1631:2421  if (... */\n    tag_111:\n        /* \"contracts/rps.sol\":1295:2421  if (player1Choice == player2Choice) {... */\n    tag_81:\n        /* \"contracts/rps.sol\":2433:2444  resetGame() */\n      tag_120\n        /* \"contracts/rps.sol\":2433:2442  resetGame */\n      tag_121\n        /* \"contracts/rps.sol\":2433:2444  resetGame() */\n      jump\t// in\n    tag_120:\n        /* \"contracts/rps.sol\":1153:2452  function resolveGame() private {... */\n      jump\t// out\n        /* \"contracts/rps.sol\":2659:2817  function payWinner(address payable player, uint amount) private {... */\n    tag_79:\n        /* \"contracts/rps.sol\":2756:2757  0 */\n      0x00\n        /* \"contracts/rps.sol\":2738:2758  player != address(0) */\n      0xffffffffffffffffffffffffffffffffffffffff\n      and\n        /* \"contracts/rps.sol\":2738:2744  player */\n      dup3\n        /* \"contracts/rps.sol\":2738:2758  player != address(0) */\n      0xffffffffffffffffffffffffffffffffffffffff\n      and\n      eq\n        /* \"contracts/rps.sol\":2734:2810  if (player != address(0)) {... */\n      tag_123\n      jumpi\n        /* \"contracts/rps.sol\":2775:2781  player */\n      dup2\n        /* \"contracts/rps.sol\":2775:2790  player.transfer */\n      0xffffffffffffffffffffffffffffffffffffffff\n      and\n        /* \"contracts/rps.sol\":2775:2798  player.transfer(amount) */\n      0x08fc\n        /* \"contracts/rps.sol\":2791:2797  amount */\n      dup3\n        /* \"contracts/rps.sol\":2775:2798  player.transfer(amount) */\n      swap1\n      dup2\n      iszero\n      mul\n      swap1\n      mload(0x40)\n      0x00\n      mload(0x40)\n      dup1\n      dup4\n      sub\n      dup2\n      dup6\n      dup9\n      dup9\n      call\n      swap4\n      pop\n      pop\n      pop\n      pop\n      iszero\n      dup1\n      iszero\n      tag_125\n      jumpi\n      returndatasize\n      0x00\n      dup1\n      returndatacopy\n      revert(0x00, returndatasize)\n    tag_125:\n      pop\n        /* \"contracts/rps.sol\":2734:2810  if (player != address(0)) {... */\n    tag_123:\n        /* \"contracts/rps.sol\":2659:2817  function payWinner(address payable player, uint amount) private {... */\n      pop\n      pop\n      jump\t// out\n        /* \"contracts/rps.sol\":2460:2651  function resetGame() private {... */\n    tag_121:\n        /* \"contracts/rps.sol\":2518:2519  0 */\n      0x00\n        /* \"contracts/rps.sol\":2500:2507  player1 */\n      0x01\n      0x00\n        /* \"contracts/rps.sol\":2500:2520  player1 = address(0) */\n      0x0100\n      exp\n      dup2\n      sload\n      dup2\n      0xffffffffffffffffffffffffffffffffffffffff\n      mul\n      not\n      and\n      swap1\n      dup4\n      0xffffffffffffffffffffffffffffffffffffffff\n      and\n      mul\n      or\n      swap1\n      sstore\n      pop\n        /* \"contracts/rps.sol\":2549:2550  0 */\n      0x00\n        /* \"contracts/rps.sol\":2531:2538  player2 */\n      0x02\n      0x00\n        /* \"contracts/rps.sol\":2531:2551  player2 = address(0) */\n      0x0100\n      exp\n      dup2\n      sload\n      dup2\n      0xffffffffffffffffffffffffffffffffffffffff\n      mul\n      not\n      and\n      swap1\n      dup4\n      0xffffffffffffffffffffffffffffffffffffffff\n      and\n      mul\n      or\n      swap1\n      sstore\n      pop\n        /* \"contracts/rps.sol\":399:411  Choices.None */\n      0x00\n        /* \"contracts/rps.sol\":2578:2597  uint(defaultChoice) */\n      0x03\n      dup2\n      gt\n      iszero\n      tag_127\n      jumpi\n      tag_128\n      tag_72\n      jump\t// in\n    tag_128:\n    tag_127:\n        /* \"contracts/rps.sol\":2562:2575  player1Choice */\n      0x04\n        /* \"contracts/rps.sol\":2562:2597  player1Choice = uint(defaultChoice) */\n      dup2\n      swap1\n      sstore\n      pop\n        /* \"contracts/rps.sol\":399:411  Choices.None */\n      0x00\n        /* \"contracts/rps.sol\":2624:2643  uint(defaultChoice) */\n      0x03\n      dup2\n      gt\n      iszero\n      tag_129\n      jumpi\n      tag_130\n      tag_72\n      jump\t// in\n    tag_130:\n    tag_129:\n        /* \"contracts/rps.sol\":2608:2621  player2Choice */\n      0x05\n        /* \"contracts/rps.sol\":2608:2643  player2Choice = uint(defaultChoice) */\n      dup2\n      swap1\n      sstore\n      pop\n        /* \"contracts/rps.sol\":2460:2651  function resetGame() private {... */\n      jump\t// out\n        /* \"#utility.yul\":7:84   */\n    tag_131:\n        /* \"#utility.yul\":44:51   */\n      0x00\n        /* \"#utility.yul\":73:78   */\n      dup2\n        /* \"#utility.yul\":62:78   */\n      swap1\n      pop\n        /* \"#utility.yul\":7:84   */\n      swap2\n      swap1\n      pop\n      jump\t// out\n        /* \"#utility.yul\":90:208   */\n    tag_132:\n        /* \"#utility.yul\":177:201   */\n      tag_166\n        /* \"#utility.yul\":195:200   */\n      dup2\n        /* \"#utility.yul\":177:201   */\n      tag_131\n      jump\t// in\n    tag_166:\n        /* \"#utility.yul\":172:175   */\n      dup3\n        /* \"#utility.yul\":165:202   */\n      mstore\n        /* \"#utility.yul\":90:208   */\n      pop\n      pop\n      jump\t// out\n        /* \"#utility.yul\":214:436   */\n    tag_15:\n        /* \"#utility.yul\":307:311   */\n      0x00\n        /* \"#utility.yul\":345:347   */\n      0x20\n        /* \"#utility.yul\":334:343   */\n      dup3\n        /* \"#utility.yul\":330:348   */\n      add\n        /* \"#utility.yul\":322:348   */\n      swap1\n      pop\n        /* \"#utility.yul\":358:429   */\n      tag_168\n        /* \"#utility.yul\":426:427   */\n      0x00\n        /* \"#utility.yul\":415:424   */\n      dup4\n        /* \"#utility.yul\":411:428   */\n      add\n        /* \"#utility.yul\":402:408   */\n      dup5\n        /* \"#utility.yul\":358:429   */\n      tag_132\n      jump\t// in\n    tag_168:\n        /* \"#utility.yul\":214:436   */\n      swap3\n      swap2\n      pop\n      pop\n      jump\t// out\n        /* \"#utility.yul\":442:568   */\n    tag_133:\n        /* \"#utility.yul\":479:486   */\n      0x00\n        /* \"#utility.yul\":519:561   */\n      0xffffffffffffffffffffffffffffffffffffffff\n        /* \"#utility.yul\":512:517   */\n      dup3\n        /* \"#utility.yul\":508:562   */\n      and\n        /* \"#utility.yul\":497:562   */\n      swap1\n      pop\n        /* \"#utility.yul\":442:568   */\n      swap2\n      swap1\n      pop\n      jump\t// out\n        /* \"#utility.yul\":574:670   */\n    tag_134:\n        /* \"#utility.yul\":611:618   */\n      0x00\n        /* \"#utility.yul\":640:664   */\n      tag_171\n        /* \"#utility.yul\":658:663   */\n      dup3\n        /* \"#utility.yul\":640:664   */\n      tag_133\n      jump\t// in\n    tag_171:\n        /* \"#utility.yul\":629:664   */\n      swap1\n      pop\n        /* \"#utility.yul\":574:670   */\n      swap2\n      swap1\n      pop\n      jump\t// out\n        /* \"#utility.yul\":676:794   */\n    tag_135:\n        /* \"#utility.yul\":763:787   */\n      tag_173\n        /* \"#utility.yul\":781:786   */\n      dup2\n        /* \"#utility.yul\":763:787   */\n      tag_134\n      jump\t// in\n    tag_173:\n        /* \"#utility.yul\":758:761   */\n      dup3\n        /* \"#utility.yul\":751:788   */\n      mstore\n        /* \"#utility.yul\":676:794   */\n      pop\n      pop\n      jump\t// out\n        /* \"#utility.yul\":800:1022   */\n    tag_20:\n        /* \"#utility.yul\":893:897   */\n      0x00\n        /* \"#utility.yul\":931:933   */\n      0x20\n        /* \"#utility.yul\":920:929   */\n      dup3\n        /* \"#utility.yul\":916:934   */\n      add\n        /* \"#utility.yul\":908:934   */\n      swap1\n      pop\n        /* \"#utility.yul\":944:1015   */\n      tag_175\n        /* \"#utility.yul\":1012:1013   */\n      0x00\n        /* \"#utility.yul\":1001:1010   */\n      dup4\n        /* \"#utility.yul\":997:1014   */\n      add\n        /* \"#utility.yul\":988:994   */\n      dup5\n        /* \"#utility.yul\":944:1015   */\n      tag_135\n      jump\t// in\n    tag_175:\n        /* \"#utility.yul\":800:1022   */\n      swap3\n      swap2\n      pop\n      pop\n      jump\t// out\n        /* \"#utility.yul\":1109:1226   */\n    tag_137:\n        /* \"#utility.yul\":1218:1219   */\n      0x00\n        /* \"#utility.yul\":1215:1216   */\n      dup1\n        /* \"#utility.yul\":1208:1220   */\n      revert\n        /* \"#utility.yul\":1355:1477   */\n    tag_139:\n        /* \"#utility.yul\":1428:1452   */\n      tag_180\n        /* \"#utility.yul\":1446:1451   */\n      dup2\n        /* \"#utility.yul\":1428:1452   */\n      tag_131\n      jump\t// in\n    tag_180:\n        /* \"#utility.yul\":1421:1426   */\n      dup2\n        /* \"#utility.yul\":1418:1453   */\n      eq\n        /* \"#utility.yul\":1408:1471   */\n      tag_181\n      jumpi\n        /* \"#utility.yul\":1467:1468   */\n      0x00\n        /* \"#utility.yul\":1464:1465   */\n      dup1\n        /* \"#utility.yul\":1457:1469   */\n      revert\n        /* \"#utility.yul\":1408:1471   */\n    tag_181:\n        /* \"#utility.yul\":1355:1477   */\n      pop\n      jump\t// out\n        /* \"#utility.yul\":1483:1622   */\n    tag_140:\n        /* \"#utility.yul\":1529:1534   */\n      0x00\n        /* \"#utility.yul\":1567:1573   */\n      dup2\n        /* \"#utility.yul\":1554:1574   */\n      calldataload\n        /* \"#utility.yul\":1545:1574   */\n      swap1\n      pop\n        /* \"#utility.yul\":1583:1616   */\n      tag_183\n        /* \"#utility.yul\":1610:1615   */\n      dup2\n        /* \"#utility.yul\":1583:1616   */\n      tag_139\n      jump\t// in\n    tag_183:\n        /* \"#utility.yul\":1483:1622   */\n      swap3\n      swap2\n      pop\n      pop\n      jump\t// out\n        /* \"#utility.yul\":1628:1957   */\n    tag_23:\n        /* \"#utility.yul\":1687:1693   */\n      0x00\n        /* \"#utility.yul\":1736:1738   */\n      0x20\n        /* \"#utility.yul\":1724:1733   */\n      dup3\n        /* \"#utility.yul\":1715:1722   */\n      dup5\n        /* \"#utility.yul\":1711:1734   */\n      sub\n        /* \"#utility.yul\":1707:1739   */\n      slt\n        /* \"#utility.yul\":1704:1823   */\n      iszero\n      tag_185\n      jumpi\n        /* \"#utility.yul\":1742:1821   */\n      tag_186\n      tag_137\n      jump\t// in\n    tag_186:\n        /* \"#utility.yul\":1704:1823   */\n    tag_185:\n        /* \"#utility.yul\":1862:1863   */\n      0x00\n        /* \"#utility.yul\":1887:1940   */\n      tag_187\n        /* \"#utility.yul\":1932:1939   */\n      dup5\n        /* \"#utility.yul\":1923:1929   */\n      dup3\n        /* \"#utility.yul\":1912:1921   */\n      dup6\n        /* \"#utility.yul\":1908:1930   */\n      add\n        /* \"#utility.yul\":1887:1940   */\n      tag_140\n      jump\t// in\n    tag_187:\n        /* \"#utility.yul\":1877:1940   */\n      swap2\n      pop\n        /* \"#utility.yul\":1833:1950   */\n      pop\n        /* \"#utility.yul\":1628:1957   */\n      swap3\n      swap2\n      pop\n      pop\n      jump\t// out\n        /* \"#utility.yul\":1963:2132   */\n    tag_141:\n        /* \"#utility.yul\":2047:2058   */\n      0x00\n        /* \"#utility.yul\":2081:2087   */\n      dup3\n        /* \"#utility.yul\":2076:2079   */\n      dup3\n        /* \"#utility.yul\":2069:2088   */\n      mstore\n        /* \"#utility.yul\":2121:2125   */\n      0x20\n        /* \"#utility.yul\":2116:2119   */\n      dup3\n        /* \"#utility.yul\":2112:2126   */\n      add\n        /* \"#utility.yul\":2097:2126   */\n      swap1\n      pop\n        /* \"#utility.yul\":1963:2132   */\n      swap3\n      swap2\n      pop\n      pop\n      jump\t// out\n        /* \"#utility.yul\":2138:2305   */\n    tag_142:\n        /* \"#utility.yul\":2278:2297   */\n      0x4f776e65722063616e6e6f7420706c6179000000000000000000000000000000\n        /* \"#utility.yul\":2274:2275   */\n      0x00\n        /* \"#utility.yul\":2266:2272   */\n      dup3\n        /* \"#utility.yul\":2262:2276   */\n      add\n        /* \"#utility.yul\":2255:2298   */\n      mstore\n        /* \"#utility.yul\":2138:2305   */\n      pop\n      jump\t// out\n        /* \"#utility.yul\":2311:2677   */\n    tag_143:\n        /* \"#utility.yul\":2453:2456   */\n      0x00\n        /* \"#utility.yul\":2474:2541   */\n      tag_191\n        /* \"#utility.yul\":2538:2540   */\n      0x11\n        /* \"#utility.yul\":2533:2536   */\n      dup4\n        /* \"#utility.yul\":2474:2541   */\n      tag_141\n      jump\t// in\n    tag_191:\n        /* \"#utility.yul\":2467:2541   */\n      swap2\n      pop\n        /* \"#utility.yul\":2550:2643   */\n      tag_192\n        /* \"#utility.yul\":2639:2642   */\n      dup3\n        /* \"#utility.yul\":2550:2643   */\n      tag_142\n      jump\t// in\n    tag_192:\n        /* \"#utility.yul\":2668:2670   */\n      0x20\n        /* \"#utility.yul\":2663:2666   */\n      dup3\n        /* \"#utility.yul\":2659:2671   */\n      add\n        /* \"#utility.yul\":2652:2671   */\n      swap1\n      pop\n        /* \"#utility.yul\":2311:2677   */\n      swap2\n      swap1\n      pop\n      jump\t// out\n        /* \"#utility.yul\":2683:3102   */\n    tag_48:\n        /* \"#utility.yul\":2849:2853   */\n      0x00\n        /* \"#utility.yul\":2887:2889   */\n      0x20\n        /* \"#utility.yul\":2876:2885   */\n      dup3\n        /* \"#utility.yul\":2872:2890   */\n      add\n        /* \"#utility.yul\":2864:2890   */\n      swap1\n      pop\n        /* \"#utility.yul\":2936:2945   */\n      dup2\n        /* \"#utility.yul\":2930:2934   */\n      dup2\n        /* \"#utility.yul\":2926:2946   */\n      sub\n        /* \"#utility.yul\":2922:2923   */\n      0x00\n        /* \"#utility.yul\":2911:2920   */\n      dup4\n        /* \"#utility.yul\":2907:2924   */\n      add\n        /* \"#utility.yul\":2900:2947   */\n      mstore\n        /* \"#utility.yul\":2964:3095   */\n      tag_194\n        /* \"#utility.yul\":3090:3094   */\n      dup2\n        /* \"#utility.yul\":2964:3095   */\n      tag_143\n      jump\t// in\n    tag_194:\n        /* \"#utility.yul\":2956:3095   */\n      swap1\n      pop\n        /* \"#utility.yul\":2683:3102   */\n      swap2\n      swap1\n      pop\n      jump\t// out\n        /* \"#utility.yul\":3108:3278   */\n    tag_144:\n        /* \"#utility.yul\":3248:3270   */\n      0x496e636f72726563742062657420616d6f756e74000000000000000000000000\n        /* \"#utility.yul\":3244:3245   */\n      0x00\n        /* \"#utility.yul\":3236:3242   */\n      dup3\n        /* \"#utility.yul\":3232:3246   */\n      add\n        /* \"#utility.yul\":3225:3271   */\n      mstore\n        /* \"#utility.yul\":3108:3278   */\n      pop\n      jump\t// out\n        /* \"#utility.yul\":3284:3650   */\n    tag_145:\n        /* \"#utility.yul\":3426:3429   */\n      0x00\n        /* \"#utility.yul\":3447:3514   */\n      tag_197\n        /* \"#utility.yul\":3511:3513   */\n      0x14\n        /* \"#utility.yul\":3506:3509   */\n      dup4\n        /* \"#utility.yul\":3447:3514   */\n      tag_141\n      jump\t// in\n    tag_197:\n        /* \"#utility.yul\":3440:3514   */\n      swap2\n      pop\n        /* \"#utility.yul\":3523:3616   */\n      tag_198\n        /* \"#utility.yul\":3612:3615   */\n      dup3\n        /* \"#utility.yul\":3523:3616   */\n      tag_144\n      jump\t// in\n    tag_198:\n        /* \"#utility.yul\":3641:3643   */\n      0x20\n        /* \"#utility.yul\":3636:3639   */\n      dup3\n        /* \"#utility.yul\":3632:3644   */\n      add\n        /* \"#utility.yul\":3625:3644   */\n      swap1\n      pop\n        /* \"#utility.yul\":3284:3650   */\n      swap2\n      swap1\n      pop\n      jump\t// out\n        /* \"#utility.yul\":3656:4075   */\n    tag_51:\n        /* \"#utility.yul\":3822:3826   */\n      0x00\n        /* \"#utility.yul\":3860:3862   */\n      0x20\n        /* \"#utility.yul\":3849:3858   */\n      dup3\n        /* \"#utility.yul\":3845:3863   */\n      add\n        /* \"#utility.yul\":3837:3863   */\n      swap1\n      pop\n        /* \"#utility.yul\":3909:3918   */\n      dup2\n        /* \"#utility.yul\":3903:3907   */\n      dup2\n        /* \"#utility.yul\":3899:3919   */\n      sub\n        /* \"#utility.yul\":3895:3896   */\n      0x00\n        /* \"#utility.yul\":3884:3893   */\n      dup4\n        /* \"#utility.yul\":3880:3897   */\n      add\n        /* \"#utility.yul\":3873:3920   */\n      mstore\n        /* \"#utility.yul\":3937:4068   */\n      tag_200\n        /* \"#utility.yul\":4063:4067   */\n      dup2\n        /* \"#utility.yul\":3937:4068   */\n      tag_145\n      jump\t// in\n    tag_200:\n        /* \"#utility.yul\":3929:4068   */\n      swap1\n      pop\n        /* \"#utility.yul\":3656:4075   */\n      swap2\n      swap1\n      pop\n      jump\t// out\n        /* \"#utility.yul\":4081:4243   */\n    tag_146:\n        /* \"#utility.yul\":4221:4235   */\n      0x47616d652069732066756c6c0000000000000000000000000000000000000000\n        /* \"#utility.yul\":4217:4218   */\n      0x00\n        /* \"#utility.yul\":4209:4215   */\n      dup3\n        /* \"#utility.yul\":4205:4219   */\n      add\n        /* \"#utility.yul\":4198:4236   */\n      mstore\n        /* \"#utility.yul\":4081:4243   */\n      pop\n      jump\t// out\n        /* \"#utility.yul\":4249:4615   */\n    tag_147:\n        /* \"#utility.yul\":4391:4394   */\n      0x00\n        /* \"#utility.yul\":4412:4479   */\n      tag_203\n        /* \"#utility.yul\":4476:4478   */\n      0x0c\n        /* \"#utility.yul\":4471:4474   */\n      dup4\n        /* \"#utility.yul\":4412:4479   */\n      tag_141\n      jump\t// in\n    tag_203:\n        /* \"#utility.yul\":4405:4479   */\n      swap2\n      pop\n        /* \"#utility.yul\":4488:4581   */\n      tag_204\n        /* \"#utility.yul\":4577:4580   */\n      dup3\n        /* \"#utility.yul\":4488:4581   */\n      tag_146\n      jump\t// in\n    tag_204:\n        /* \"#utility.yul\":4606:4608   */\n      0x20\n        /* \"#utility.yul\":4601:4604   */\n      dup3\n        /* \"#utility.yul\":4597:4609   */\n      add\n        /* \"#utility.yul\":4590:4609   */\n      swap1\n      pop\n        /* \"#utility.yul\":4249:4615   */\n      swap2\n      swap1\n      pop\n      jump\t// out\n        /* \"#utility.yul\":4621:5040   */\n    tag_55:\n        /* \"#utility.yul\":4787:4791   */\n      0x00\n        /* \"#utility.yul\":4825:4827   */\n      0x20\n        /* \"#utility.yul\":4814:4823   */\n      dup3\n        /* \"#utility.yul\":4810:4828   */\n      add\n        /* \"#utility.yul\":4802:4828   */\n      swap1\n      pop\n        /* \"#utility.yul\":4874:4883   */\n      dup2\n        /* \"#utility.yul\":4868:4872   */\n      dup2\n        /* \"#utility.yul\":4864:4884   */\n      sub\n        /* \"#utility.yul\":4860:4861   */\n      0x00\n        /* \"#utility.yul\":4849:4858   */\n      dup4\n        /* \"#utility.yul\":4845:4862   */\n      add\n        /* \"#utility.yul\":4838:4885   */\n      mstore\n        /* \"#utility.yul\":4902:5033   */\n      tag_206\n        /* \"#utility.yul\":5028:5032   */\n      dup2\n        /* \"#utility.yul\":4902:5033   */\n      tag_147\n      jump\t// in\n    tag_206:\n        /* \"#utility.yul\":4894:5033   */\n      swap1\n      pop\n        /* \"#utility.yul\":4621:5040   */\n      swap2\n      swap1\n      pop\n      jump\t// out\n        /* \"#utility.yul\":5046:5213   */\n    tag_148:\n        /* \"#utility.yul\":5186:5205   */\n      0x43616e6e6f7420706c6179207477696365000000000000000000000000000000\n        /* \"#utility.yul\":5182:5183   */\n      0x00\n        /* \"#utility.yul\":5174:5180   */\n      dup3\n        /* \"#utility.yul\":5170:5184   */\n      add\n        /* \"#utility.yul\":5163:5206   */\n      mstore\n        /* \"#utility.yul\":5046:5213   */\n      pop\n      jump\t// out\n        /* \"#utility.yul\":5219:5585   */\n    tag_149:\n        /* \"#utility.yul\":5361:5364   */\n      0x00\n        /* \"#utility.yul\":5382:5449   */\n      tag_209\n        /* \"#utility.yul\":5446:5448   */\n      0x11\n        /* \"#utility.yul\":5441:5444   */\n      dup4\n        /* \"#utility.yul\":5382:5449   */\n      tag_141\n      jump\t// in\n    tag_209:\n        /* \"#utility.yul\":5375:5449   */\n      swap2\n      pop\n        /* \"#utility.yul\":5458:5551   */\n      tag_210\n        /* \"#utility.yul\":5547:5550   */\n      dup3\n        /* \"#utility.yul\":5458:5551   */\n      tag_148\n      jump\t// in\n    tag_210:\n        /* \"#utility.yul\":5576:5578   */\n      0x20\n        /* \"#utility.yul\":5571:5574   */\n      dup3\n        /* \"#utility.yul\":5567:5579   */\n      add\n        /* \"#utility.yul\":5560:5579   */\n      swap1\n      pop\n        /* \"#utility.yul\":5219:5585   */\n      swap2\n      swap1\n      pop\n      jump\t// out\n        /* \"#utility.yul\":5591:6010   */\n    tag_59:\n        /* \"#utility.yul\":5757:5761   */\n      0x00\n        /* \"#utility.yul\":5795:5797   */\n      0x20\n        /* \"#utility.yul\":5784:5793   */\n      dup3\n        /* \"#utility.yul\":5780:5798   */\n      add\n        /* \"#utility.yul\":5772:5798   */\n      swap1\n      pop\n        /* \"#utility.yul\":5844:5853   */\n      dup2\n        /* \"#utility.yul\":5838:5842   */\n      dup2\n        /* \"#utility.yul\":5834:5854   */\n      sub\n        /* \"#utility.yul\":5830:5831   */\n      0x00\n        /* \"#utility.yul\":5819:5828   */\n      dup4\n        /* \"#utility.yul\":5815:5832   */\n      add\n        /* \"#utility.yul\":5808:5855   */\n      mstore\n        /* \"#utility.yul\":5872:6003   */\n      tag_212\n        /* \"#utility.yul\":5998:6002   */\n      dup2\n        /* \"#utility.yul\":5872:6003   */\n      tag_149\n      jump\t// in\n    tag_212:\n        /* \"#utility.yul\":5864:6003   */\n      swap1\n      pop\n        /* \"#utility.yul\":5591:6010   */\n      swap2\n      swap1\n      pop\n      jump\t// out\n        /* \"#utility.yul\":6016:6194   */\n    tag_150:\n        /* \"#utility.yul\":6156:6186   */\n      0x47616d65206973206e6f7420726561647920746f207265736f6c766500000000\n        /* \"#utility.yul\":6152:6153   */\n      0x00\n        /* \"#utility.yul\":6144:6150   */\n      dup3\n        /* \"#utility.yul\":6140:6154   */\n      add\n        /* \"#utility.yul\":6133:6187   */\n      mstore\n        /* \"#utility.yul\":6016:6194   */\n      pop\n      jump\t// out\n        /* \"#utility.yul\":6200:6566   */\n    tag_151:\n        /* \"#utility.yul\":6342:6345   */\n      0x00\n        /* \"#utility.yul\":6363:6430   */\n      tag_215\n        /* \"#utility.yul\":6427:6429   */\n      0x1c\n        /* \"#utility.yul\":6422:6425   */\n      dup4\n        /* \"#utility.yul\":6363:6430   */\n      tag_141\n      jump\t// in\n    tag_215:\n        /* \"#utility.yul\":6356:6430   */\n      swap2\n      pop\n        /* \"#utility.yul\":6439:6532   */\n      tag_216\n        /* \"#utility.yul\":6528:6531   */\n      dup3\n        /* \"#utility.yul\":6439:6532   */\n      tag_150\n      jump\t// in\n    tag_216:\n        /* \"#utility.yul\":6557:6559   */\n      0x20\n        /* \"#utility.yul\":6552:6555   */\n      dup3\n        /* \"#utility.yul\":6548:6560   */\n      add\n        /* \"#utility.yul\":6541:6560   */\n      swap1\n      pop\n        /* \"#utility.yul\":6200:6566   */\n      swap2\n      swap1\n      pop\n      jump\t// out\n        /* \"#utility.yul\":6572:6991   */\n    tag_68:\n        /* \"#utility.yul\":6738:6742   */\n      0x00\n        /* \"#utility.yul\":6776:6778   */\n      0x20\n        /* \"#utility.yul\":6765:6774   */\n      dup3\n        /* \"#utility.yul\":6761:6779   */\n      add\n        /* \"#utility.yul\":6753:6779   */\n      swap1\n      pop\n        /* \"#utility.yul\":6825:6834   */\n      dup2\n        /* \"#utility.yul\":6819:6823   */\n      dup2\n        /* \"#utility.yul\":6815:6835   */\n      sub\n        /* \"#utility.yul\":6811:6812   */\n      0x00\n        /* \"#utility.yul\":6800:6809   */\n      dup4\n        /* \"#utility.yul\":6796:6813   */\n      add\n        /* \"#utility.yul\":6789:6836   */\n      mstore\n        /* \"#utility.yul\":6853:6984   */\n      tag_218\n        /* \"#utility.yul\":6979:6983   */\n      dup2\n        /* \"#utility.yul\":6853:6984   */\n      tag_151\n      jump\t// in\n    tag_218:\n        /* \"#utility.yul\":6845:6984   */\n      swap1\n      pop\n        /* \"#utility.yul\":6572:6991   */\n      swap2\n      swap1\n      pop\n      jump\t// out\n        /* \"#utility.yul\":6997:7177   */\n    tag_72:\n        /* \"#utility.yul\":7045:7122   */\n      0x4e487b7100000000000000000000000000000000000000000000000000000000\n        /* \"#utility.yul\":7042:7043   */\n      0x00\n        /* \"#utility.yul\":7035:7123   */\n      mstore\n        /* \"#utility.yul\":7142:7146   */\n      0x21\n        /* \"#utility.yul\":7139:7140   */\n      0x04\n        /* \"#utility.yul\":7132:7147   */\n      mstore\n        /* \"#utility.yul\":7166:7170   */\n      0x24\n        /* \"#utility.yul\":7163:7164   */\n      0x00\n        /* \"#utility.yul\":7156:7171   */\n      revert\n        /* \"#utility.yul\":7183:7298   */\n    tag_152:\n        /* \"#utility.yul\":7266:7267   */\n      0x04\n        /* \"#utility.yul\":7259:7264   */\n      dup2\n        /* \"#utility.yul\":7256:7268   */\n      lt\n        /* \"#utility.yul\":7246:7292   */\n      tag_221\n      jumpi\n        /* \"#utility.yul\":7272:7290   */\n      tag_222\n      tag_72\n      jump\t// in\n    tag_222:\n        /* \"#utility.yul\":7246:7292   */\n    tag_221:\n        /* \"#utility.yul\":7183:7298   */\n      pop\n      jump\t// out\n        /* \"#utility.yul\":7304:7435   */\n    tag_153:\n        /* \"#utility.yul\":7351:7358   */\n      0x00\n        /* \"#utility.yul\":7380:7385   */\n      dup2\n        /* \"#utility.yul\":7369:7385   */\n      swap1\n      pop\n        /* \"#utility.yul\":7386:7429   */\n      tag_224\n        /* \"#utility.yul\":7423:7428   */\n      dup3\n        /* \"#utility.yul\":7386:7429   */\n      tag_152\n      jump\t// in\n    tag_224:\n        /* \"#utility.yul\":7304:7435   */\n      swap2\n      swap1\n      pop\n      jump\t// out\n        /* \"#utility.yul\":7441:7572   */\n    tag_154:\n        /* \"#utility.yul\":7499:7508   */\n      0x00\n        /* \"#utility.yul\":7532:7566   */\n      tag_226\n        /* \"#utility.yul\":7560:7565   */\n      dup3\n        /* \"#utility.yul\":7532:7566   */\n      tag_153\n      jump\t// in\n    tag_226:\n        /* \"#utility.yul\":7519:7566   */\n      swap1\n      pop\n        /* \"#utility.yul\":7441:7572   */\n      swap2\n      swap1\n      pop\n      jump\t// out\n        /* \"#utility.yul\":7578:7725   */\n    tag_155:\n        /* \"#utility.yul\":7673:7718   */\n      tag_228\n        /* \"#utility.yul\":7712:7717   */\n      dup2\n        /* \"#utility.yul\":7673:7718   */\n      tag_154\n      jump\t// in\n    tag_228:\n        /* \"#utility.yul\":7668:7671   */\n      dup3\n        /* \"#utility.yul\":7661:7719   */\n      mstore\n        /* \"#utility.yul\":7578:7725   */\n      pop\n      pop\n      jump\t// out\n        /* \"#utility.yul\":7731:7885   */\n    tag_156:\n        /* \"#utility.yul\":7871:7877   */\n      0x4472617700000000000000000000000000000000000000000000000000000000\n        /* \"#utility.yul\":7867:7868   */\n      0x00\n        /* \"#utility.yul\":7859:7865   */\n      dup3\n        /* \"#utility.yul\":7855:7869   */\n      add\n        /* \"#utility.yul\":7848:7878   */\n      mstore\n        /* \"#utility.yul\":7731:7885   */\n      pop\n      jump\t// out\n        /* \"#utility.yul\":7891:8256   */\n    tag_157:\n        /* \"#utility.yul\":8033:8036   */\n      0x00\n        /* \"#utility.yul\":8054:8120   */\n      tag_231\n        /* \"#utility.yul\":8118:8119   */\n      0x04\n        /* \"#utility.yul\":8113:8116   */\n      dup4\n        /* \"#utility.yul\":8054:8120   */\n      tag_141\n      jump\t// in\n    tag_231:\n        /* \"#utility.yul\":8047:8120   */\n      swap2\n      pop\n        /* \"#utility.yul\":8129:8222   */\n      tag_232\n        /* \"#utility.yul\":8218:8221   */\n      dup3\n        /* \"#utility.yul\":8129:8222   */\n      tag_156\n      jump\t// in\n    tag_232:\n        /* \"#utility.yul\":8247:8249   */\n      0x20\n        /* \"#utility.yul\":8242:8245   */\n      dup3\n        /* \"#utility.yul\":8238:8250   */\n      add\n        /* \"#utility.yul\":8231:8250   */\n      swap1\n      pop\n        /* \"#utility.yul\":7891:8256   */\n      swap2\n      swap1\n      pop\n      jump\t// out\n        /* \"#utility.yul\":8262:8807   */\n    tag_74:\n        /* \"#utility.yul\":8464:8468   */\n      0x00\n        /* \"#utility.yul\":8502:8504   */\n      0x40\n        /* \"#utility.yul\":8491:8500   */\n      dup3\n        /* \"#utility.yul\":8487:8505   */\n      add\n        /* \"#utility.yul\":8479:8505   */\n      swap1\n      pop\n        /* \"#utility.yul\":8515:8594   */\n      tag_234\n        /* \"#utility.yul\":8591:8592   */\n      0x00\n        /* \"#utility.yul\":8580:8589   */\n      dup4\n        /* \"#utility.yul\":8576:8593   */\n      add\n        /* \"#utility.yul\":8567:8573   */\n      dup5\n        /* \"#utility.yul\":8515:8594   */\n      tag_155\n      jump\t// in\n    tag_234:\n        /* \"#utility.yul\":8641:8650   */\n      dup2\n        /* \"#utility.yul\":8635:8639   */\n      dup2\n        /* \"#utility.yul\":8631:8651   */\n      sub\n        /* \"#utility.yul\":8626:8628   */\n      0x20\n        /* \"#utility.yul\":8615:8624   */\n      dup4\n        /* \"#utility.yul\":8611:8629   */\n      add\n        /* \"#utility.yul\":8604:8652   */\n      mstore\n        /* \"#utility.yul\":8669:8800   */\n      tag_235\n        /* \"#utility.yul\":8795:8799   */\n      dup2\n        /* \"#utility.yul\":8669:8800   */\n      tag_157\n      jump\t// in\n    tag_235:\n        /* \"#utility.yul\":8661:8800   */\n      swap1\n      pop\n        /* \"#utility.yul\":8262:8807   */\n      swap3\n      swap2\n      pop\n      pop\n      jump\t// out\n        /* \"#utility.yul\":8813:8966   */\n    tag_158:\n        /* \"#utility.yul\":8953:8958   */\n      0x57696e0000000000000000000000000000000000000000000000000000000000\n        /* \"#utility.yul\":8949:8950   */\n      0x00\n        /* \"#utility.yul\":8941:8947   */\n      dup3\n        /* \"#utility.yul\":8937:8951   */\n      add\n        /* \"#utility.yul\":8930:8959   */\n      mstore\n        /* \"#utility.yul\":8813:8966   */\n      pop\n      jump\t// out\n        /* \"#utility.yul\":8972:9337   */\n    tag_159:\n        /* \"#utility.yul\":9114:9117   */\n      0x00\n        /* \"#utility.yul\":9135:9201   */\n      tag_238\n        /* \"#utility.yul\":9199:9200   */\n      0x03\n        /* \"#utility.yul\":9194:9197   */\n      dup4\n        /* \"#utility.yul\":9135:9201   */\n      tag_141\n      jump\t// in\n    tag_238:\n        /* \"#utility.yul\":9128:9201   */\n      swap2\n      pop\n        /* \"#utility.yul\":9210:9303   */\n      tag_239\n        /* \"#utility.yul\":9299:9302   */\n      dup3\n        /* \"#utility.yul\":9210:9303   */\n      tag_158\n      jump\t// in\n    tag_239:\n        /* \"#utility.yul\":9328:9330   */\n      0x20\n        /* \"#utility.yul\":9323:9326   */\n      dup3\n        /* \"#utility.yul\":9319:9331   */\n      add\n        /* \"#utility.yul\":9312:9331   */\n      swap1\n      pop\n        /* \"#utility.yul\":8972:9337   */\n      swap2\n      swap1\n      pop\n      jump\t// out\n        /* \"#utility.yul\":9343:9888   */\n    tag_103:\n        /* \"#utility.yul\":9545:9549   */\n      0x00\n        /* \"#utility.yul\":9583:9585   */\n      0x40\n        /* \"#utility.yul\":9572:9581   */\n      dup3\n        /* \"#utility.yul\":9568:9586   */\n      add\n        /* \"#utility.yul\":9560:9586   */\n      swap1\n      pop\n        /* \"#utility.yul\":9596:9675   */\n      tag_241\n        /* \"#utility.yul\":9672:9673   */\n      0x00\n        /* \"#utility.yul\":9661:9670   */\n      dup4\n        /* \"#utility.yul\":9657:9674   */\n      add\n        /* \"#utility.yul\":9648:9654   */\n      dup5\n        /* \"#utility.yul\":9596:9675   */\n      tag_155\n      jump\t// in\n    tag_241:\n        /* \"#utility.yul\":9722:9731   */\n      dup2\n        /* \"#utility.yul\":9716:9720   */\n      dup2\n        /* \"#utility.yul\":9712:9732   */\n      sub\n        /* \"#utility.yul\":9707:9709   */\n      0x20\n        /* \"#utility.yul\":9696:9705   */\n      dup4\n        /* \"#utility.yul\":9692:9710   */\n      add\n        /* \"#utility.yul\":9685:9733   */\n      mstore\n        /* \"#utility.yul\":9750:9881   */\n      tag_242\n        /* \"#utility.yul\":9876:9880   */\n      dup2\n        /* \"#utility.yul\":9750:9881   */\n      tag_159\n      jump\t// in\n    tag_242:\n        /* \"#utility.yul\":9742:9881   */\n      swap1\n      pop\n        /* \"#utility.yul\":9343:9888   */\n      swap3\n      swap2\n      pop\n      pop\n      jump\t// out\n        /* \"#utility.yul\":9894:10048   */\n    tag_160:\n        /* \"#utility.yul\":10034:10040   */\n      0x4c6f736500000000000000000000000000000000000000000000000000000000\n        /* \"#utility.yul\":10030:10031   */\n      0x00\n        /* \"#utility.yul\":10022:10028   */\n      dup3\n        /* \"#utility.yul\":10018:10032   */\n      add\n        /* \"#utility.yul\":10011:10041   */\n      mstore\n        /* \"#utility.yul\":9894:10048   */\n      pop\n      jump\t// out\n        /* \"#utility.yul\":10054:10419   */\n    tag_161:\n        /* \"#utility.yul\":10196:10199   */\n      0x00\n        /* \"#utility.yul\":10217:10283   */\n      tag_245\n        /* \"#utility.yul\":10281:10282   */\n      0x04\n        /* \"#utility.yul\":10276:10279   */\n      dup4\n        /* \"#utility.yul\":10217:10283   */\n      tag_141\n      jump\t// in\n    tag_245:\n        /* \"#utility.yul\":10210:10283   */\n      swap2\n      pop\n        /* \"#utility.yul\":10292:10385   */\n      tag_246\n        /* \"#utility.yul\":10381:10384   */\n      dup3\n        /* \"#utility.yul\":10292:10385   */\n      tag_160\n      jump\t// in\n    tag_246:\n        /* \"#utility.yul\":10410:10412   */\n      0x20\n        /* \"#utility.yul\":10405:10408   */\n      dup3\n        /* \"#utility.yul\":10401:10413   */\n      add\n        /* \"#utility.yul\":10394:10413   */\n      swap1\n      pop\n        /* \"#utility.yul\":10054:10419   */\n      swap2\n      swap1\n      pop\n      jump\t// out\n        /* \"#utility.yul\":10425:10970   */\n    tag_107:\n        /* \"#utility.yul\":10627:10631   */\n      0x00\n        /* \"#utility.yul\":10665:10667   */\n      0x40\n        /* \"#utility.yul\":10654:10663   */\n      dup3\n        /* \"#utility.yul\":10650:10668   */\n      add\n        /* \"#utility.yul\":10642:10668   */\n      swap1\n      pop\n        /* \"#utility.yul\":10678:10757   */\n      tag_248\n        /* \"#utility.yul\":10754:10755   */\n      0x00\n        /* \"#utility.yul\":10743:10752   */\n      dup4\n        /* \"#utility.yul\":10739:10756   */\n      add\n        /* \"#utility.yul\":10730:10736   */\n      dup5\n        /* \"#utility.yul\":10678:10757   */\n      tag_155\n      jump\t// in\n    tag_248:\n        /* \"#utility.yul\":10804:10813   */\n      dup2\n        /* \"#utility.yul\":10798:10802   */\n      dup2\n        /* \"#utility.yul\":10794:10814   */\n      sub\n        /* \"#utility.yul\":10789:10791   */\n      0x20\n        /* \"#utility.yul\":10778:10787   */\n      dup4\n        /* \"#utility.yul\":10774:10792   */\n      add\n        /* \"#utility.yul\":10767:10815   */\n      mstore\n        /* \"#utility.yul\":10832:10963   */\n      tag_249\n        /* \"#utility.yul\":10958:10962   */\n      dup2\n        /* \"#utility.yul\":10832:10963   */\n      tag_161\n      jump\t// in\n    tag_249:\n        /* \"#utility.yul\":10824:10963   */\n      swap1\n      pop\n        /* \"#utility.yul\":10425:10970   */\n      swap3\n      swap2\n      pop\n      pop\n      jump\t// out\n        /* \"#utility.yul\":10976:11156   */\n    tag_162:\n        /* \"#utility.yul\":11024:11101   */\n      0x4e487b7100000000000000000000000000000000000000000000000000000000\n        /* \"#utility.yul\":11021:11022   */\n      0x00\n        /* \"#utility.yul\":11014:11102   */\n      mstore\n        /* \"#utility.yul\":11121:11125   */\n      0x11\n        /* \"#utility.yul\":11118:11119   */\n      0x04\n        /* \"#utility.yul\":11111:11126   */\n      mstore\n        /* \"#utility.yul\":11145:11149   */\n      0x24\n        /* \"#utility.yul\":11142:11143   */\n      0x00\n        /* \"#utility.yul\":11135:11150   */\n      revert\n        /* \"#utility.yul\":11162:11572   */\n    tag_110:\n        /* \"#utility.yul\":11202:11209   */\n      0x00\n        /* \"#utility.yul\":11225:11245   */\n      tag_252\n        /* \"#utility.yul\":11243:11244   */\n      dup3\n        /* \"#utility.yul\":11225:11245   */\n      tag_131\n      jump\t// in\n    tag_252:\n        /* \"#utility.yul\":11220:11245   */\n      swap2\n      pop\n        /* \"#utility.yul\":11259:11279   */\n      tag_253\n        /* \"#utility.yul\":11277:11278   */\n      dup4\n        /* \"#utility.yul\":11259:11279   */\n      tag_131\n      jump\t// in\n    tag_253:\n        /* \"#utility.yul\":11254:11279   */\n      swap3\n      pop\n        /* \"#utility.yul\":11314:11315   */\n      dup3\n        /* \"#utility.yul\":11311:11312   */\n      dup3\n        /* \"#utility.yul\":11307:11316   */\n      mul\n        /* \"#utility.yul\":11336:11366   */\n      tag_254\n        /* \"#utility.yul\":11354:11365   */\n      dup2\n        /* \"#utility.yul\":11336:11366   */\n      tag_131\n      jump\t// in\n    tag_254:\n        /* \"#utility.yul\":11325:11366   */\n      swap2\n      pop\n        /* \"#utility.yul\":11515:11516   */\n      dup3\n        /* \"#utility.yul\":11506:11513   */\n      dup3\n        /* \"#utility.yul\":11502:11517   */\n      div\n        /* \"#utility.yul\":11499:11500   */\n      dup5\n        /* \"#utility.yul\":11496:11518   */\n      eq\n        /* \"#utility.yul\":11476:11477   */\n      dup4\n        /* \"#utility.yul\":11469:11478   */\n      iszero\n        /* \"#utility.yul\":11449:11532   */\n      or\n        /* \"#utility.yul\":11426:11565   */\n      tag_255\n      jumpi\n        /* \"#utility.yul\":11545:11563   */\n      tag_256\n      tag_162\n      jump\t// in\n    tag_256:\n        /* \"#utility.yul\":11426:11565   */\n    tag_255:\n        /* \"#utility.yul\":11210:11572   */\n      pop\n        /* \"#utility.yul\":11162:11572   */\n      swap3\n      swap2\n      pop\n      pop\n      jump\t// out\n\n    auxdata: 0xa2646970667358221220e185e67a74e71305840dfca76dfc7d508ab9236483d1841825d6d6443f036ba964736f6c63430008120033\n}\n",
				"bytecode": {
					"linkReferences": {},
					"object": "6080604052655af3107a400060035534801561001a57600080fd5b50336000806101000a81548173ffffffffffffffffffffffffffffffffffffffff021916908373ffffffffffffffffffffffffffffffffffffffff1602179055506113a78061006a6000396000f3fe60806040526004361061007b5760003560e01c8063d24257c01161004e578063d24257c01461011d578063d30895e414610148578063d8b1f21914610173578063dfbf53ae1461019e5761007b565b80630ce6e6801461008057806359a5f12d146100ab5780636898f82b146100d65780638da5cb5b146100f2575b600080fd5b34801561008c57600080fd5b506100956101c9565b6040516100a29190610e19565b60405180910390f35b3480156100b757600080fd5b506100c06101cf565b6040516100cd9190610e75565b60405180910390f35b6100f060048036038101906100eb9190610ec1565b6101f5565b005b3480156100fe57600080fd5b50610107610593565b6040516101149190610e75565b60405180910390f35b34801561012957600080fd5b506101326105b7565b60405161013f9190610e19565b60405180910390f35b34801561015457600080fd5b5061015d6105bd565b60405161016a9190610e75565b60405180910390f35b34801561017f57600080fd5b506101886105e3565b6040516101959190610e19565b60405180910390f35b3480156101aa57600080fd5b506101b36105e9565b6040516101c09190610e75565b60405180910390f35b60055481565b600260009054906101000a900473ffffffffffffffffffffffffffffffffffffffff1681565b60008054906101000a900473ffffffffffffffffffffffffffffffffffffffff1673ffffffffffffffffffffffffffffffffffffffff163373ffffffffffffffffffffffffffffffffffffffff1603610283576040517f08c379a000000000000000000000000000000000000000000000000000000000815260040161027a90610f4b565b60405180910390fd5b60035434146102c7576040517f08c379a00000000000000000000000000000000000000000000000000000000081526004016102be90610fb7565b60405180910390fd5b600073ffffffffffffffffffffffffffffffffffffffff16600160009054906101000a900473ffffffffffffffffffffffffffffffffffffffff1673ffffffffffffffffffffffffffffffffffffffff1614806103725750600073ffffffffffffffffffffffffffffffffffffffff16600260009054906101000a900473ffffffffffffffffffffffffffffffffffffffff1673ffffffffffffffffffffffffffffffffffffffff16145b6103b1576040517f08c379a00000000000000000000000000000000000000000000000000000000081526004016103a890611023565b60405180910390fd5b3373ffffffffffffffffffffffffffffffffffffffff16600160009054906101000a900473ffffffffffffffffffffffffffffffffffffffff1673ffffffffffffffffffffffffffffffffffffffff161415801561045d57503373ffffffffffffffffffffffffffffffffffffffff16600260009054906101000a900473ffffffffffffffffffffffffffffffffffffffff1673ffffffffffffffffffffffffffffffffffffffff1614155b61049c576040517f08c379a00000000000000000000000000000000000000000000000000000000081526004016104939061108f565b60405180910390fd5b600073ffffffffffffffffffffffffffffffffffffffff16600160009054906101000a900473ffffffffffffffffffffffffffffffffffffffff1673ffffffffffffffffffffffffffffffffffffffff160361053f5733600160006101000a81548173ffffffffffffffffffffffffffffffffffffffff021916908373ffffffffffffffffffffffffffffffffffffffff16021790555080600481905550610590565b33600260006101000a81548173ffffffffffffffffffffffffffffffffffffffff021916908373ffffffffffffffffffffffffffffffffffffffff1602179055508060058190555061058f61060f565b5b50565b60008054906101000a900473ffffffffffffffffffffffffffffffffffffffff1681565b60035481565b600160009054906101000a900473ffffffffffffffffffffffffffffffffffffffff1681565b60045481565b600660009054906101000a900473ffffffffffffffffffffffffffffffffffffffff1681565b600073ffffffffffffffffffffffffffffffffffffffff16600160009054906101000a900473ffffffffffffffffffffffffffffffffffffffff1673ffffffffffffffffffffffffffffffffffffffff16141580156106bd5750600073ffffffffffffffffffffffffffffffffffffffff16600260009054906101000a900473ffffffffffffffffffffffffffffffffffffffff1673ffffffffffffffffffffffffffffffffffffffff1614155b6106fc576040517f08c379a00000000000000000000000000000000000000000000000000000000081526004016106f3906110fb565b60405180910390fd5b600554600454036108b2576000600660006101000a81548173ffffffffffffffffffffffffffffffffffffffff021916908373ffffffffffffffffffffffffffffffffffffffff160217905550600160009054906101000a900473ffffffffffffffffffffffffffffffffffffffff1673ffffffffffffffffffffffffffffffffffffffff167f13e9967b536f6769cc425109ba739c9d24faa62d05db2e1838c411f709fdb18f60045460038111156107b8576107b761111b565b5b6040516107c591906111de565b60405180910390a2600260009054906101000a900473ffffffffffffffffffffffffffffffffffffffff1673ffffffffffffffffffffffffffffffffffffffff167f13e9967b536f6769cc425109ba739c9d24faa62d05db2e1838c411f709fdb18f600554600381111561083c5761083b61111b565b5b60405161084991906111de565b60405180910390a261087f600160009054906101000a900473ffffffffffffffffffffffffffffffffffffffff16600354610cc6565b6108ad600260009054906101000a900473ffffffffffffffffffffffffffffffffffffffff16600354610cc6565b610cbc565b600160038111156108c6576108c561111b565b5b6004541480156108e957506003808111156108e4576108e361111b565b5b600554145b806109285750600260038111156109035761090261111b565b5b6004541480156109275750600160038111156109225761092161111b565b5b600554145b5b8061096657506003808111156109415761094061111b565b5b6004541480156109655750600260038111156109605761095f61111b565b5b600554145b5b15610b1557600160009054906101000a900473ffffffffffffffffffffffffffffffffffffffff16600660006101000a81548173ffffffffffffffffffffffffffffffffffffffff021916908373ffffffffffffffffffffffffffffffffffffffff160217905550600160009054906101000a900473ffffffffffffffffffffffffffffffffffffffff1673ffffffffffffffffffffffffffffffffffffffff167f13e9967b536f6769cc425109ba739c9d24faa62d05db2e1838c411f709fdb18f6004546003811115610a3d57610a3c61111b565b5b604051610a4a9190611258565b60405180910390a2600260009054906101000a900473ffffffffffffffffffffffffffffffffffffffff1673ffffffffffffffffffffffffffffffffffffffff167f13e9967b536f6769cc425109ba739c9d24faa62d05db2e1838c411f709fdb18f6005546003811115610ac157610ac061111b565b5b604051610ace91906112d2565b60405180910390a2610b10600160009054906101000a900473ffffffffffffffffffffffffffffffffffffffff166003546002610b0b919061132f565b610cc6565b610cbb565b600260009054906101000a900473ffffffffffffffffffffffffffffffffffffffff16600660006101000a81548173ffffffffffffffffffffffffffffffffffffffff021916908373ffffffffffffffffffffffffffffffffffffffff160217905550600160009054906101000a900473ffffffffffffffffffffffffffffffffffffffff1673ffffffffffffffffffffffffffffffffffffffff167f13e9967b536f6769cc425109ba739c9d24faa62d05db2e1838c411f709fdb18f6004546003811115610be757610be661111b565b5b604051610bf491906112d2565b60405180910390a2600260009054906101000a900473ffffffffffffffffffffffffffffffffffffffff1673ffffffffffffffffffffffffffffffffffffffff167f13e9967b536f6769cc425109ba739c9d24faa62d05db2e1838c411f709fdb18f6005546003811115610c6b57610c6a61111b565b5b604051610c789190611258565b60405180910390a2610cba600260009054906101000a900473ffffffffffffffffffffffffffffffffffffffff166003546002610cb5919061132f565b610cc6565b5b5b610cc4610d46565b565b600073ffffffffffffffffffffffffffffffffffffffff168273ffffffffffffffffffffffffffffffffffffffff1614610d42578173ffffffffffffffffffffffffffffffffffffffff166108fc829081150290604051600060405180830381858888f19350505050158015610d40573d6000803e3d6000fd5b505b5050565b6000600160006101000a81548173ffffffffffffffffffffffffffffffffffffffff021916908373ffffffffffffffffffffffffffffffffffffffff1602179055506000600260006101000a81548173ffffffffffffffffffffffffffffffffffffffff021916908373ffffffffffffffffffffffffffffffffffffffff16021790555060006003811115610dde57610ddd61111b565b5b60048190555060006003811115610df857610df761111b565b5b600581905550565b6000819050919050565b610e1381610e00565b82525050565b6000602082019050610e2e6000830184610e0a565b92915050565b600073ffffffffffffffffffffffffffffffffffffffff82169050919050565b6000610e5f82610e34565b9050919050565b610e6f81610e54565b82525050565b6000602082019050610e8a6000830184610e66565b92915050565b600080fd5b610e9e81610e00565b8114610ea957600080fd5b50565b600081359050610ebb81610e95565b92915050565b600060208284031215610ed757610ed6610e90565b5b6000610ee584828501610eac565b91505092915050565b600082825260208201905092915050565b7f4f776e65722063616e6e6f7420706c6179000000000000000000000000000000600082015250565b6000610f35601183610eee565b9150610f4082610eff565b602082019050919050565b60006020820190508181036000830152610f6481610f28565b9050919050565b7f496e636f72726563742062657420616d6f756e74000000000000000000000000600082015250565b6000610fa1601483610eee565b9150610fac82610f6b565b602082019050919050565b60006020820190508181036000830152610fd081610f94565b9050919050565b7f47616d652069732066756c6c0000000000000000000000000000000000000000600082015250565b600061100d600c83610eee565b915061101882610fd7565b602082019050919050565b6000602082019050818103600083015261103c81611000565b9050919050565b7f43616e6e6f7420706c6179207477696365000000000000000000000000000000600082015250565b6000611079601183610eee565b915061108482611043565b602082019050919050565b600060208201905081810360008301526110a88161106c565b9050919050565b7f47616d65206973206e6f7420726561647920746f207265736f6c766500000000600082015250565b60006110e5601c83610eee565b91506110f0826110af565b602082019050919050565b60006020820190508181036000830152611114816110d8565b9050919050565b7f4e487b7100000000000000000000000000000000000000000000000000000000600052602160045260246000fd5b6004811061115b5761115a61111b565b5b50565b600081905061116c8261114a565b919050565b600061117c8261115e565b9050919050565b61118c81611171565b82525050565b7f4472617700000000000000000000000000000000000000000000000000000000600082015250565b60006111c8600483610eee565b91506111d382611192565b602082019050919050565b60006040820190506111f36000830184611183565b8181036020830152611204816111bb565b905092915050565b7f57696e0000000000000000000000000000000000000000000000000000000000600082015250565b6000611242600383610eee565b915061124d8261120c565b602082019050919050565b600060408201905061126d6000830184611183565b818103602083015261127e81611235565b905092915050565b7f4c6f736500000000000000000000000000000000000000000000000000000000600082015250565b60006112bc600483610eee565b91506112c782611286565b602082019050919050565b60006040820190506112e76000830184611183565b81810360208301526112f8816112af565b905092915050565b7f4e487b7100000000000000000000000000000000000000000000000000000000600052601160045260246000fd5b600061133a82610e00565b915061134583610e00565b925082820261135381610e00565b9150828204841483151761136a57611369611300565b5b509291505056fea2646970667358221220e185e67a74e71305840dfca76dfc7d508ab9236483d1841825d6d6443f036ba964736f6c63430008120033",
					"opcodes": "PUSH1 0x80 PUSH1 0x40 MSTORE PUSH6 0x5AF3107A4000 PUSH1 0x3 SSTORE CALLVALUE DUP1 ISZERO PUSH2 0x1A JUMPI PUSH1 0x0 DUP1 REVERT JUMPDEST POP CALLER PUSH1 0x0 DUP1 PUSH2 0x100 EXP DUP2 SLOAD DUP2 PUSH20 0xFFFFFFFFFFFFFFFFFFFFFFFFFFFFFFFFFFFFFFFF MUL NOT AND SWAP1 DUP4 PUSH20 0xFFFFFFFFFFFFFFFFFFFFFFFFFFFFFFFFFFFFFFFF AND MUL OR SWAP1 SSTORE POP PUSH2 0x13A7 DUP1 PUSH2 0x6A PUSH1 0x0 CODECOPY PUSH1 0x0 RETURN INVALID PUSH1 0x80 PUSH1 0x40 MSTORE PUSH1 0x4 CALLDATASIZE LT PUSH2 0x7B JUMPI PUSH1 0x0 CALLDATALOAD PUSH1 0xE0 SHR DUP1 PUSH4 0xD24257C0 GT PUSH2 0x4E JUMPI DUP1 PUSH4 0xD24257C0 EQ PUSH2 0x11D JUMPI DUP1 PUSH4 0xD30895E4 EQ PUSH2 0x148 JUMPI DUP1 PUSH4 0xD8B1F219 EQ PUSH2 0x173 JUMPI DUP1 PUSH4 0xDFBF53AE EQ PUSH2 0x19E JUMPI PUSH2 0x7B JUMP JUMPDEST DUP1 PUSH4 0xCE6E680 EQ PUSH2 0x80 JUMPI DUP1 PUSH4 0x59A5F12D EQ PUSH2 0xAB JUMPI DUP1 PUSH4 0x6898F82B EQ PUSH2 0xD6 JUMPI DUP1 PUSH4 0x8DA5CB5B EQ PUSH2 0xF2 JUMPI JUMPDEST PUSH1 0x0 DUP1 REVERT JUMPDEST CALLVALUE DUP1 ISZERO PUSH2 0x8C JUMPI PUSH1 0x0 DUP1 REVERT JUMPDEST POP PUSH2 0x95 PUSH2 0x1C9 JUMP JUMPDEST PUSH1 0x40 MLOAD PUSH2 0xA2 SWAP2 SWAP1 PUSH2 0xE19 JUMP JUMPDEST PUSH1 0x40 MLOAD DUP1 SWAP2 SUB SWAP1 RETURN JUMPDEST CALLVALUE DUP1 ISZERO PUSH2 0xB7 JUMPI PUSH1 0x0 DUP1 REVERT JUMPDEST POP PUSH2 0xC0 PUSH2 0x1CF JUMP JUMPDEST PUSH1 0x40 MLOAD PUSH2 0xCD SWAP2 SWAP1 PUSH2 0xE75 JUMP JUMPDEST PUSH1 0x40 MLOAD DUP1 SWAP2 SUB SWAP1 RETURN JUMPDEST PUSH2 0xF0 PUSH1 0x4 DUP1 CALLDATASIZE SUB DUP2 ADD SWAP1 PUSH2 0xEB SWAP2 SWAP1 PUSH2 0xEC1 JUMP JUMPDEST PUSH2 0x1F5 JUMP JUMPDEST STOP JUMPDEST CALLVALUE DUP1 ISZERO PUSH2 0xFE JUMPI PUSH1 0x0 DUP1 REVERT JUMPDEST POP PUSH2 0x107 PUSH2 0x593 JUMP JUMPDEST PUSH1 0x40 MLOAD PUSH2 0x114 SWAP2 SWAP1 PUSH2 0xE75 JUMP JUMPDEST PUSH1 0x40 MLOAD DUP1 SWAP2 SUB SWAP1 RETURN JUMPDEST CALLVALUE DUP1 ISZERO PUSH2 0x129 JUMPI PUSH1 0x0 DUP1 REVERT JUMPDEST POP PUSH2 0x132 PUSH2 0x5B7 JUMP JUMPDEST PUSH1 0x40 MLOAD PUSH2 0x13F SWAP2 SWAP1 PUSH2 0xE19 JUMP JUMPDEST PUSH1 0x40 MLOAD DUP1 SWAP2 SUB SWAP1 RETURN JUMPDEST CALLVALUE DUP1 ISZERO PUSH2 0x154 JUMPI PUSH1 0x0 DUP1 REVERT JUMPDEST POP PUSH2 0x15D PUSH2 0x5BD JUMP JUMPDEST PUSH1 0x40 MLOAD PUSH2 0x16A SWAP2 SWAP1 PUSH2 0xE75 JUMP JUMPDEST PUSH1 0x40 MLOAD DUP1 SWAP2 SUB SWAP1 RETURN JUMPDEST CALLVALUE DUP1 ISZERO PUSH2 0x17F JUMPI PUSH1 0x0 DUP1 REVERT JUMPDEST POP PUSH2 0x188 PUSH2 0x5E3 JUMP JUMPDEST PUSH1 0x40 MLOAD PUSH2 0x195 SWAP2 SWAP1 PUSH2 0xE19 JUMP JUMPDEST PUSH1 0x40 MLOAD DUP1 SWAP2 SUB SWAP1 RETURN JUMPDEST CALLVALUE DUP1 ISZERO PUSH2 0x1AA JUMPI PUSH1 0x0 DUP1 REVERT JUMPDEST POP PUSH2 0x1B3 PUSH2 0x5E9 JUMP JUMPDEST PUSH1 0x40 MLOAD PUSH2 0x1C0 SWAP2 SWAP1 PUSH2 0xE75 JUMP JUMPDEST PUSH1 0x40 MLOAD DUP1 SWAP2 SUB SWAP1 RETURN JUMPDEST PUSH1 0x5 SLOAD DUP2 JUMP JUMPDEST PUSH1 0x2 PUSH1 0x0 SWAP1 SLOAD SWAP1 PUSH2 0x100 EXP SWAP1 DIV PUSH20 0xFFFFFFFFFFFFFFFFFFFFFFFFFFFFFFFFFFFFFFFF AND DUP2 JUMP JUMPDEST PUSH1 0x0 DUP1 SLOAD SWAP1 PUSH2 0x100 EXP SWAP1 DIV PUSH20 0xFFFFFFFFFFFFFFFFFFFFFFFFFFFFFFFFFFFFFFFF AND PUSH20 0xFFFFFFFFFFFFFFFFFFFFFFFFFFFFFFFFFFFFFFFF AND CALLER PUSH20 0xFFFFFFFFFFFFFFFFFFFFFFFFFFFFFFFFFFFFFFFF AND SUB PUSH2 0x283 JUMPI PUSH1 0x40 MLOAD PUSH32 0x8C379A000000000000000000000000000000000000000000000000000000000 DUP2 MSTORE PUSH1 0x4 ADD PUSH2 0x27A SWAP1 PUSH2 0xF4B JUMP JUMPDEST PUSH1 0x40 MLOAD DUP1 SWAP2 SUB SWAP1 REVERT JUMPDEST PUSH1 0x3 SLOAD CALLVALUE EQ PUSH2 0x2C7 JUMPI PUSH1 0x40 MLOAD PUSH32 0x8C379A000000000000000000000000000000000000000000000000000000000 DUP2 MSTORE PUSH1 0x4 ADD PUSH2 0x2BE SWAP1 PUSH2 0xFB7 JUMP JUMPDEST PUSH1 0x40 MLOAD DUP1 SWAP2 SUB SWAP1 REVERT JUMPDEST PUSH1 0x0 PUSH20 0xFFFFFFFFFFFFFFFFFFFFFFFFFFFFFFFFFFFFFFFF AND PUSH1 0x1 PUSH1 0x0 SWAP1 SLOAD SWAP1 PUSH2 0x100 EXP SWAP1 DIV PUSH20 0xFFFFFFFFFFFFFFFFFFFFFFFFFFFFFFFFFFFFFFFF AND PUSH20 0xFFFFFFFFFFFFFFFFFFFFFFFFFFFFFFFFFFFFFFFF AND EQ DUP1 PUSH2 0x372 JUMPI POP PUSH1 0x0 PUSH20 0xFFFFFFFFFFFFFFFFFFFFFFFFFFFFFFFFFFFFFFFF AND PUSH1 0x2 PUSH1 0x0 SWAP1 SLOAD SWAP1 PUSH2 0x100 EXP SWAP1 DIV PUSH20 0xFFFFFFFFFFFFFFFFFFFFFFFFFFFFFFFFFFFFFFFF AND PUSH20 0xFFFFFFFFFFFFFFFFFFFFFFFFFFFFFFFFFFFFFFFF AND EQ JUMPDEST PUSH2 0x3B1 JUMPI PUSH1 0x40 MLOAD PUSH32 0x8C379A000000000000000000000000000000000000000000000000000000000 DUP2 MSTORE PUSH1 0x4 ADD PUSH2 0x3A8 SWAP1 PUSH2 0x1023 JUMP JUMPDEST PUSH1 0x40 MLOAD DUP1 SWAP2 SUB SWAP1 REVERT JUMPDEST CALLER PUSH20 0xFFFFFFFFFFFFFFFFFFFFFFFFFFFFFFFFFFFFFFFF AND PUSH1 0x1 PUSH1 0x0 SWAP1 SLOAD SWAP1 PUSH2 0x100 EXP SWAP1 DIV PUSH20 0xFFFFFFFFFFFFFFFFFFFFFFFFFFFFFFFFFFFFFFFF AND PUSH20 0xFFFFFFFFFFFFFFFFFFFFFFFFFFFFFFFFFFFFFFFF AND EQ ISZERO DUP1 ISZERO PUSH2 0x45D JUMPI POP CALLER PUSH20 0xFFFFFFFFFFFFFFFFFFFFFFFFFFFFFFFFFFFFFFFF AND PUSH1 0x2 PUSH1 0x0 SWAP1 SLOAD SWAP1 PUSH2 0x100 EXP SWAP1 DIV PUSH20 0xFFFFFFFFFFFFFFFFFFFFFFFFFFFFFFFFFFFFFFFF AND PUSH20 0xFFFFFFFFFFFFFFFFFFFFFFFFFFFFFFFFFFFFFFFF AND EQ ISZERO JUMPDEST PUSH2 0x49C JUMPI PUSH1 0x40 MLOAD PUSH32 0x8C379A000000000000000000000000000000000000000000000000000000000 DUP2 MSTORE PUSH1 0x4 ADD PUSH2 0x493 SWAP1 PUSH2 0x108F JUMP JUMPDEST PUSH1 0x40 MLOAD DUP1 SWAP2 SUB SWAP1 REVERT JUMPDEST PUSH1 0x0 PUSH20 0xFFFFFFFFFFFFFFFFFFFFFFFFFFFFFFFFFFFFFFFF AND PUSH1 0x1 PUSH1 0x0 SWAP1 SLOAD SWAP1 PUSH2 0x100 EXP SWAP1 DIV PUSH20 0xFFFFFFFFFFFFFFFFFFFFFFFFFFFFFFFFFFFFFFFF AND PUSH20 0xFFFFFFFFFFFFFFFFFFFFFFFFFFFFFFFFFFFFFFFF AND SUB PUSH2 0x53F JUMPI CALLER PUSH1 0x1 PUSH1 0x0 PUSH2 0x100 EXP DUP2 SLOAD DUP2 PUSH20 0xFFFFFFFFFFFFFFFFFFFFFFFFFFFFFFFFFFFFFFFF MUL NOT AND SWAP1 DUP4 PUSH20 0xFFFFFFFFFFFFFFFFFFFFFFFFFFFFFFFFFFFFFFFF AND MUL OR SWAP1 SSTORE POP DUP1 PUSH1 0x4 DUP2 SWAP1 SSTORE POP PUSH2 0x590 JUMP JUMPDEST CALLER PUSH1 0x2 PUSH1 0x0 PUSH2 0x100 EXP DUP2 SLOAD DUP2 PUSH20 0xFFFFFFFFFFFFFFFFFFFFFFFFFFFFFFFFFFFFFFFF MUL NOT AND SWAP1 DUP4 PUSH20 0xFFFFFFFFFFFFFFFFFFFFFFFFFFFFFFFFFFFFFFFF AND MUL OR SWAP1 SSTORE POP DUP1 PUSH1 0x5 DUP2 SWAP1 SSTORE POP PUSH2 0x58F PUSH2 0x60F JUMP JUMPDEST JUMPDEST POP JUMP JUMPDEST PUSH1 0x0 DUP1 SLOAD SWAP1 PUSH2 0x100 EXP SWAP1 DIV PUSH20 0xFFFFFFFFFFFFFFFFFFFFFFFFFFFFFFFFFFFFFFFF AND DUP2 JUMP JUMPDEST PUSH1 0x3 SLOAD DUP2 JUMP JUMPDEST PUSH1 0x1 PUSH1 0x0 SWAP1 SLOAD SWAP1 PUSH2 0x100 EXP SWAP1 DIV PUSH20 0xFFFFFFFFFFFFFFFFFFFFFFFFFFFFFFFFFFFFFFFF AND DUP2 JUMP JUMPDEST PUSH1 0x4 SLOAD DUP2 JUMP JUMPDEST PUSH1 0x6 PUSH1 0x0 SWAP1 SLOAD SWAP1 PUSH2 0x100 EXP SWAP1 DIV PUSH20 0xFFFFFFFFFFFFFFFFFFFFFFFFFFFFFFFFFFFFFFFF AND DUP2 JUMP JUMPDEST PUSH1 0x0 PUSH20 0xFFFFFFFFFFFFFFFFFFFFFFFFFFFFFFFFFFFFFFFF AND PUSH1 0x1 PUSH1 0x0 SWAP1 SLOAD SWAP1 PUSH2 0x100 EXP SWAP1 DIV PUSH20 0xFFFFFFFFFFFFFFFFFFFFFFFFFFFFFFFFFFFFFFFF AND PUSH20 0xFFFFFFFFFFFFFFFFFFFFFFFFFFFFFFFFFFFFFFFF AND EQ ISZERO DUP1 ISZERO PUSH2 0x6BD JUMPI POP PUSH1 0x0 PUSH20 0xFFFFFFFFFFFFFFFFFFFFFFFFFFFFFFFFFFFFFFFF AND PUSH1 0x2 PUSH1 0x0 SWAP1 SLOAD SWAP1 PUSH2 0x100 EXP SWAP1 DIV PUSH20 0xFFFFFFFFFFFFFFFFFFFFFFFFFFFFFFFFFFFFFFFF AND PUSH20 0xFFFFFFFFFFFFFFFFFFFFFFFFFFFFFFFFFFFFFFFF AND EQ ISZERO JUMPDEST PUSH2 0x6FC JUMPI PUSH1 0x40 MLOAD PUSH32 0x8C379A000000000000000000000000000000000000000000000000000000000 DUP2 MSTORE PUSH1 0x4 ADD PUSH2 0x6F3 SWAP1 PUSH2 0x10FB JUMP JUMPDEST PUSH1 0x40 MLOAD DUP1 SWAP2 SUB SWAP1 REVERT JUMPDEST PUSH1 0x5 SLOAD PUSH1 0x4 SLOAD SUB PUSH2 0x8B2 JUMPI PUSH1 0x0 PUSH1 0x6 PUSH1 0x0 PUSH2 0x100 EXP DUP2 SLOAD DUP2 PUSH20 0xFFFFFFFFFFFFFFFFFFFFFFFFFFFFFFFFFFFFFFFF MUL NOT AND SWAP1 DUP4 PUSH20 0xFFFFFFFFFFFFFFFFFFFFFFFFFFFFFFFFFFFFFFFF AND MUL OR SWAP1 SSTORE POP PUSH1 0x1 PUSH1 0x0 SWAP1 SLOAD SWAP1 PUSH2 0x100 EXP SWAP1 DIV PUSH20 0xFFFFFFFFFFFFFFFFFFFFFFFFFFFFFFFFFFFFFFFF AND PUSH20 0xFFFFFFFFFFFFFFFFFFFFFFFFFFFFFFFFFFFFFFFF AND PUSH32 0x13E9967B536F6769CC425109BA739C9D24FAA62D05DB2E1838C411F709FDB18F PUSH1 0x4 SLOAD PUSH1 0x3 DUP2 GT ISZERO PUSH2 0x7B8 JUMPI PUSH2 0x7B7 PUSH2 0x111B JUMP JUMPDEST JUMPDEST PUSH1 0x40 MLOAD PUSH2 0x7C5 SWAP2 SWAP1 PUSH2 0x11DE JUMP JUMPDEST PUSH1 0x40 MLOAD DUP1 SWAP2 SUB SWAP1 LOG2 PUSH1 0x2 PUSH1 0x0 SWAP1 SLOAD SWAP1 PUSH2 0x100 EXP SWAP1 DIV PUSH20 0xFFFFFFFFFFFFFFFFFFFFFFFFFFFFFFFFFFFFFFFF AND PUSH20 0xFFFFFFFFFFFFFFFFFFFFFFFFFFFFFFFFFFFFFFFF AND PUSH32 0x13E9967B536F6769CC425109BA739C9D24FAA62D05DB2E1838C411F709FDB18F PUSH1 0x5 SLOAD PUSH1 0x3 DUP2 GT ISZERO PUSH2 0x83C JUMPI PUSH2 0x83B PUSH2 0x111B JUMP JUMPDEST JUMPDEST PUSH1 0x40 MLOAD PUSH2 0x849 SWAP2 SWAP1 PUSH2 0x11DE JUMP JUMPDEST PUSH1 0x40 MLOAD DUP1 SWAP2 SUB SWAP1 LOG2 PUSH2 0x87F PUSH1 0x1 PUSH1 0x0 SWAP1 SLOAD SWAP1 PUSH2 0x100 EXP SWAP1 DIV PUSH20 0xFFFFFFFFFFFFFFFFFFFFFFFFFFFFFFFFFFFFFFFF AND PUSH1 0x3 SLOAD PUSH2 0xCC6 JUMP JUMPDEST PUSH2 0x8AD PUSH1 0x2 PUSH1 0x0 SWAP1 SLOAD SWAP1 PUSH2 0x100 EXP SWAP1 DIV PUSH20 0xFFFFFFFFFFFFFFFFFFFFFFFFFFFFFFFFFFFFFFFF AND PUSH1 0x3 SLOAD PUSH2 0xCC6 JUMP JUMPDEST PUSH2 0xCBC JUMP JUMPDEST PUSH1 0x1 PUSH1 0x3 DUP2 GT ISZERO PUSH2 0x8C6 JUMPI PUSH2 0x8C5 PUSH2 0x111B JUMP JUMPDEST JUMPDEST PUSH1 0x4 SLOAD EQ DUP1 ISZERO PUSH2 0x8E9 JUMPI POP PUSH1 0x3 DUP1 DUP2 GT ISZERO PUSH2 0x8E4 JUMPI PUSH2 0x8E3 PUSH2 0x111B JUMP JUMPDEST JUMPDEST PUSH1 0x5 SLOAD EQ JUMPDEST DUP1 PUSH2 0x928 JUMPI POP PUSH1 0x2 PUSH1 0x3 DUP2 GT ISZERO PUSH2 0x903 JUMPI PUSH2 0x902 PUSH2 0x111B JUMP JUMPDEST JUMPDEST PUSH1 0x4 SLOAD EQ DUP1 ISZERO PUSH2 0x927 JUMPI POP PUSH1 0x1 PUSH1 0x3 DUP2 GT ISZERO PUSH2 0x922 JUMPI PUSH2 0x921 PUSH2 0x111B JUMP JUMPDEST JUMPDEST PUSH1 0x5 SLOAD EQ JUMPDEST JUMPDEST DUP1 PUSH2 0x966 JUMPI POP PUSH1 0x3 DUP1 DUP2 GT ISZERO PUSH2 0x941 JUMPI PUSH2 0x940 PUSH2 0x111B JUMP JUMPDEST JUMPDEST PUSH1 0x4 SLOAD EQ DUP1 ISZERO PUSH2 0x965 JUMPI POP PUSH1 0x2 PUSH1 0x3 DUP2 GT ISZERO PUSH2 0x960 JUMPI PUSH2 0x95F PUSH2 0x111B JUMP JUMPDEST JUMPDEST PUSH1 0x5 SLOAD EQ JUMPDEST JUMPDEST ISZERO PUSH2 0xB15 JUMPI PUSH1 0x1 PUSH1 0x0 SWAP1 SLOAD SWAP1 PUSH2 0x100 EXP SWAP1 DIV PUSH20 0xFFFFFFFFFFFFFFFFFFFFFFFFFFFFFFFFFFFFFFFF AND PUSH1 0x6 PUSH1 0x0 PUSH2 0x100 EXP DUP2 SLOAD DUP2 PUSH20 0xFFFFFFFFFFFFFFFFFFFFFFFFFFFFFFFFFFFFFFFF MUL NOT AND SWAP1 DUP4 PUSH20 0xFFFFFFFFFFFFFFFFFFFFFFFFFFFFFFFFFFFFFFFF AND MUL OR SWAP1 SSTORE POP PUSH1 0x1 PUSH1 0x0 SWAP1 SLOAD SWAP1 PUSH2 0x100 EXP SWAP1 DIV PUSH20 0xFFFFFFFFFFFFFFFFFFFFFFFFFFFFFFFFFFFFFFFF AND PUSH20 0xFFFFFFFFFFFFFFFFFFFFFFFFFFFFFFFFFFFFFFFF AND PUSH32 0x13E9967B536F6769CC425109BA739C9D24FAA62D05DB2E1838C411F709FDB18F PUSH1 0x4 SLOAD PUSH1 0x3 DUP2 GT ISZERO PUSH2 0xA3D JUMPI PUSH2 0xA3C PUSH2 0x111B JUMP JUMPDEST JUMPDEST PUSH1 0x40 MLOAD PUSH2 0xA4A SWAP2 SWAP1 PUSH2 0x1258 JUMP JUMPDEST PUSH1 0x40 MLOAD DUP1 SWAP2 SUB SWAP1 LOG2 PUSH1 0x2 PUSH1 0x0 SWAP1 SLOAD SWAP1 PUSH2 0x100 EXP SWAP1 DIV PUSH20 0xFFFFFFFFFFFFFFFFFFFFFFFFFFFFFFFFFFFFFFFF AND PUSH20 0xFFFFFFFFFFFFFFFFFFFFFFFFFFFFFFFFFFFFFFFF AND PUSH32 0x13E9967B536F6769CC425109BA739C9D24FAA62D05DB2E1838C411F709FDB18F PUSH1 0x5 SLOAD PUSH1 0x3 DUP2 GT ISZERO PUSH2 0xAC1 JUMPI PUSH2 0xAC0 PUSH2 0x111B JUMP JUMPDEST JUMPDEST PUSH1 0x40 MLOAD PUSH2 0xACE SWAP2 SWAP1 PUSH2 0x12D2 JUMP JUMPDEST PUSH1 0x40 MLOAD DUP1 SWAP2 SUB SWAP1 LOG2 PUSH2 0xB10 PUSH1 0x1 PUSH1 0x0 SWAP1 SLOAD SWAP1 PUSH2 0x100 EXP SWAP1 DIV PUSH20 0xFFFFFFFFFFFFFFFFFFFFFFFFFFFFFFFFFFFFFFFF AND PUSH1 0x3 SLOAD PUSH1 0x2 PUSH2 0xB0B SWAP2 SWAP1 PUSH2 0x132F JUMP JUMPDEST PUSH2 0xCC6 JUMP JUMPDEST PUSH2 0xCBB JUMP JUMPDEST PUSH1 0x2 PUSH1 0x0 SWAP1 SLOAD SWAP1 PUSH2 0x100 EXP SWAP1 DIV PUSH20 0xFFFFFFFFFFFFFFFFFFFFFFFFFFFFFFFFFFFFFFFF AND PUSH1 0x6 PUSH1 0x0 PUSH2 0x100 EXP DUP2 SLOAD DUP2 PUSH20 0xFFFFFFFFFFFFFFFFFFFFFFFFFFFFFFFFFFFFFFFF MUL NOT AND SWAP1 DUP4 PUSH20 0xFFFFFFFFFFFFFFFFFFFFFFFFFFFFFFFFFFFFFFFF AND MUL OR SWAP1 SSTORE POP PUSH1 0x1 PUSH1 0x0 SWAP1 SLOAD SWAP1 PUSH2 0x100 EXP SWAP1 DIV PUSH20 0xFFFFFFFFFFFFFFFFFFFFFFFFFFFFFFFFFFFFFFFF AND PUSH20 0xFFFFFFFFFFFFFFFFFFFFFFFFFFFFFFFFFFFFFFFF AND PUSH32 0x13E9967B536F6769CC425109BA739C9D24FAA62D05DB2E1838C411F709FDB18F PUSH1 0x4 SLOAD PUSH1 0x3 DUP2 GT ISZERO PUSH2 0xBE7 JUMPI PUSH2 0xBE6 PUSH2 0x111B JUMP JUMPDEST JUMPDEST PUSH1 0x40 MLOAD PUSH2 0xBF4 SWAP2 SWAP1 PUSH2 0x12D2 JUMP JUMPDEST PUSH1 0x40 MLOAD DUP1 SWAP2 SUB SWAP1 LOG2 PUSH1 0x2 PUSH1 0x0 SWAP1 SLOAD SWAP1 PUSH2 0x100 EXP SWAP1 DIV PUSH20 0xFFFFFFFFFFFFFFFFFFFFFFFFFFFFFFFFFFFFFFFF AND PUSH20 0xFFFFFFFFFFFFFFFFFFFFFFFFFFFFFFFFFFFFFFFF AND PUSH32 0x13E9967B536F6769CC425109BA739C9D24FAA62D05DB2E1838C411F709FDB18F PUSH1 0x5 SLOAD PUSH1 0x3 DUP2 GT ISZERO PUSH2 0xC6B JUMPI PUSH2 0xC6A PUSH2 0x111B JUMP JUMPDEST JUMPDEST PUSH1 0x40 MLOAD PUSH2 0xC78 SWAP2 SWAP1 PUSH2 0x1258 JUMP JUMPDEST PUSH1 0x40 MLOAD DUP1 SWAP2 SUB SWAP1 LOG2 PUSH2 0xCBA PUSH1 0x2 PUSH1 0x0 SWAP1 SLOAD SWAP1 PUSH2 0x100 EXP SWAP1 DIV PUSH20 0xFFFFFFFFFFFFFFFFFFFFFFFFFFFFFFFFFFFFFFFF AND PUSH1 0x3 SLOAD PUSH1 0x2 PUSH2 0xCB5 SWAP2 SWAP1 PUSH2 0x132F JUMP JUMPDEST PUSH2 0xCC6 JUMP JUMPDEST JUMPDEST JUMPDEST PUSH2 0xCC4 PUSH2 0xD46 JUMP JUMPDEST JUMP JUMPDEST PUSH1 0x0 PUSH20 0xFFFFFFFFFFFFFFFFFFFFFFFFFFFFFFFFFFFFFFFF AND DUP3 PUSH20 0xFFFFFFFFFFFFFFFFFFFFFFFFFFFFFFFFFFFFFFFF AND EQ PUSH2 0xD42 JUMPI DUP2 PUSH20 0xFFFFFFFFFFFFFFFFFFFFFFFFFFFFFFFFFFFFFFFF AND PUSH2 0x8FC DUP3 SWAP1 DUP2 ISZERO MUL SWAP1 PUSH1 0x40 MLOAD PUSH1 0x0 PUSH1 0x40 MLOAD DUP1 DUP4 SUB DUP2 DUP6 DUP9 DUP9 CALL SWAP4 POP POP POP POP ISZERO DUP1 ISZERO PUSH2 0xD40 JUMPI RETURNDATASIZE PUSH1 0x0 DUP1 RETURNDATACOPY RETURNDATASIZE PUSH1 0x0 REVERT JUMPDEST POP JUMPDEST POP POP JUMP JUMPDEST PUSH1 0x0 PUSH1 0x1 PUSH1 0x0 PUSH2 0x100 EXP DUP2 SLOAD DUP2 PUSH20 0xFFFFFFFFFFFFFFFFFFFFFFFFFFFFFFFFFFFFFFFF MUL NOT AND SWAP1 DUP4 PUSH20 0xFFFFFFFFFFFFFFFFFFFFFFFFFFFFFFFFFFFFFFFF AND MUL OR SWAP1 SSTORE POP PUSH1 0x0 PUSH1 0x2 PUSH1 0x0 PUSH2 0x100 EXP DUP2 SLOAD DUP2 PUSH20 0xFFFFFFFFFFFFFFFFFFFFFFFFFFFFFFFFFFFFFFFF MUL NOT AND SWAP1 DUP4 PUSH20 0xFFFFFFFFFFFFFFFFFFFFFFFFFFFFFFFFFFFFFFFF AND MUL OR SWAP1 SSTORE POP PUSH1 0x0 PUSH1 0x3 DUP2 GT ISZERO PUSH2 0xDDE JUMPI PUSH2 0xDDD PUSH2 0x111B JUMP JUMPDEST JUMPDEST PUSH1 0x4 DUP2 SWAP1 SSTORE POP PUSH1 0x0 PUSH1 0x3 DUP2 GT ISZERO PUSH2 0xDF8 JUMPI PUSH2 0xDF7 PUSH2 0x111B JUMP JUMPDEST JUMPDEST PUSH1 0x5 DUP2 SWAP1 SSTORE POP JUMP JUMPDEST PUSH1 0x0 DUP2 SWAP1 POP SWAP2 SWAP1 POP JUMP JUMPDEST PUSH2 0xE13 DUP2 PUSH2 0xE00 JUMP JUMPDEST DUP3 MSTORE POP POP JUMP JUMPDEST PUSH1 0x0 PUSH1 0x20 DUP3 ADD SWAP1 POP PUSH2 0xE2E PUSH1 0x0 DUP4 ADD DUP5 PUSH2 0xE0A JUMP JUMPDEST SWAP3 SWAP2 POP POP JUMP JUMPDEST PUSH1 0x0 PUSH20 0xFFFFFFFFFFFFFFFFFFFFFFFFFFFFFFFFFFFFFFFF DUP3 AND SWAP1 POP SWAP2 SWAP1 POP JUMP JUMPDEST PUSH1 0x0 PUSH2 0xE5F DUP3 PUSH2 0xE34 JUMP JUMPDEST SWAP1 POP SWAP2 SWAP1 POP JUMP JUMPDEST PUSH2 0xE6F DUP2 PUSH2 0xE54 JUMP JUMPDEST DUP3 MSTORE POP POP JUMP JUMPDEST PUSH1 0x0 PUSH1 0x20 DUP3 ADD SWAP1 POP PUSH2 0xE8A PUSH1 0x0 DUP4 ADD DUP5 PUSH2 0xE66 JUMP JUMPDEST SWAP3 SWAP2 POP POP JUMP JUMPDEST PUSH1 0x0 DUP1 REVERT JUMPDEST PUSH2 0xE9E DUP2 PUSH2 0xE00 JUMP JUMPDEST DUP2 EQ PUSH2 0xEA9 JUMPI PUSH1 0x0 DUP1 REVERT JUMPDEST POP JUMP JUMPDEST PUSH1 0x0 DUP2 CALLDATALOAD SWAP1 POP PUSH2 0xEBB DUP2 PUSH2 0xE95 JUMP JUMPDEST SWAP3 SWAP2 POP POP JUMP JUMPDEST PUSH1 0x0 PUSH1 0x20 DUP3 DUP5 SUB SLT ISZERO PUSH2 0xED7 JUMPI PUSH2 0xED6 PUSH2 0xE90 JUMP JUMPDEST JUMPDEST PUSH1 0x0 PUSH2 0xEE5 DUP5 DUP3 DUP6 ADD PUSH2 0xEAC JUMP JUMPDEST SWAP2 POP POP SWAP3 SWAP2 POP POP JUMP JUMPDEST PUSH1 0x0 DUP3 DUP3 MSTORE PUSH1 0x20 DUP3 ADD SWAP1 POP SWAP3 SWAP2 POP POP JUMP JUMPDEST PUSH32 0x4F776E65722063616E6E6F7420706C6179000000000000000000000000000000 PUSH1 0x0 DUP3 ADD MSTORE POP JUMP JUMPDEST PUSH1 0x0 PUSH2 0xF35 PUSH1 0x11 DUP4 PUSH2 0xEEE JUMP JUMPDEST SWAP2 POP PUSH2 0xF40 DUP3 PUSH2 0xEFF JUMP JUMPDEST PUSH1 0x20 DUP3 ADD SWAP1 POP SWAP2 SWAP1 POP JUMP JUMPDEST PUSH1 0x0 PUSH1 0x20 DUP3 ADD SWAP1 POP DUP2 DUP2 SUB PUSH1 0x0 DUP4 ADD MSTORE PUSH2 0xF64 DUP2 PUSH2 0xF28 JUMP JUMPDEST SWAP1 POP SWAP2 SWAP1 POP JUMP JUMPDEST PUSH32 0x496E636F72726563742062657420616D6F756E74000000000000000000000000 PUSH1 0x0 DUP3 ADD MSTORE POP JUMP JUMPDEST PUSH1 0x0 PUSH2 0xFA1 PUSH1 0x14 DUP4 PUSH2 0xEEE JUMP JUMPDEST SWAP2 POP PUSH2 0xFAC DUP3 PUSH2 0xF6B JUMP JUMPDEST PUSH1 0x20 DUP3 ADD SWAP1 POP SWAP2 SWAP1 POP JUMP JUMPDEST PUSH1 0x0 PUSH1 0x20 DUP3 ADD SWAP1 POP DUP2 DUP2 SUB PUSH1 0x0 DUP4 ADD MSTORE PUSH2 0xFD0 DUP2 PUSH2 0xF94 JUMP JUMPDEST SWAP1 POP SWAP2 SWAP1 POP JUMP JUMPDEST PUSH32 0x47616D652069732066756C6C0000000000000000000000000000000000000000 PUSH1 0x0 DUP3 ADD MSTORE POP JUMP JUMPDEST PUSH1 0x0 PUSH2 0x100D PUSH1 0xC DUP4 PUSH2 0xEEE JUMP JUMPDEST SWAP2 POP PUSH2 0x1018 DUP3 PUSH2 0xFD7 JUMP JUMPDEST PUSH1 0x20 DUP3 ADD SWAP1 POP SWAP2 SWAP1 POP JUMP JUMPDEST PUSH1 0x0 PUSH1 0x20 DUP3 ADD SWAP1 POP DUP2 DUP2 SUB PUSH1 0x0 DUP4 ADD MSTORE PUSH2 0x103C DUP2 PUSH2 0x1000 JUMP JUMPDEST SWAP1 POP SWAP2 SWAP1 POP JUMP JUMPDEST PUSH32 0x43616E6E6F7420706C6179207477696365000000000000000000000000000000 PUSH1 0x0 DUP3 ADD MSTORE POP JUMP JUMPDEST PUSH1 0x0 PUSH2 0x1079 PUSH1 0x11 DUP4 PUSH2 0xEEE JUMP JUMPDEST SWAP2 POP PUSH2 0x1084 DUP3 PUSH2 0x1043 JUMP JUMPDEST PUSH1 0x20 DUP3 ADD SWAP1 POP SWAP2 SWAP1 POP JUMP JUMPDEST PUSH1 0x0 PUSH1 0x20 DUP3 ADD SWAP1 POP DUP2 DUP2 SUB PUSH1 0x0 DUP4 ADD MSTORE PUSH2 0x10A8 DUP2 PUSH2 0x106C JUMP JUMPDEST SWAP1 POP SWAP2 SWAP1 POP JUMP JUMPDEST PUSH32 0x47616D65206973206E6F7420726561647920746F207265736F6C766500000000 PUSH1 0x0 DUP3 ADD MSTORE POP JUMP JUMPDEST PUSH1 0x0 PUSH2 0x10E5 PUSH1 0x1C DUP4 PUSH2 0xEEE JUMP JUMPDEST SWAP2 POP PUSH2 0x10F0 DUP3 PUSH2 0x10AF JUMP JUMPDEST PUSH1 0x20 DUP3 ADD SWAP1 POP SWAP2 SWAP1 POP JUMP JUMPDEST PUSH1 0x0 PUSH1 0x20 DUP3 ADD SWAP1 POP DUP2 DUP2 SUB PUSH1 0x0 DUP4 ADD MSTORE PUSH2 0x1114 DUP2 PUSH2 0x10D8 JUMP JUMPDEST SWAP1 POP SWAP2 SWAP1 POP JUMP JUMPDEST PUSH32 0x4E487B7100000000000000000000000000000000000000000000000000000000 PUSH1 0x0 MSTORE PUSH1 0x21 PUSH1 0x4 MSTORE PUSH1 0x24 PUSH1 0x0 REVERT JUMPDEST PUSH1 0x4 DUP2 LT PUSH2 0x115B JUMPI PUSH2 0x115A PUSH2 0x111B JUMP JUMPDEST JUMPDEST POP JUMP JUMPDEST PUSH1 0x0 DUP2 SWAP1 POP PUSH2 0x116C DUP3 PUSH2 0x114A JUMP JUMPDEST SWAP2 SWAP1 POP JUMP JUMPDEST PUSH1 0x0 PUSH2 0x117C DUP3 PUSH2 0x115E JUMP JUMPDEST SWAP1 POP SWAP2 SWAP1 POP JUMP JUMPDEST PUSH2 0x118C DUP2 PUSH2 0x1171 JUMP JUMPDEST DUP3 MSTORE POP POP JUMP JUMPDEST PUSH32 0x4472617700000000000000000000000000000000000000000000000000000000 PUSH1 0x0 DUP3 ADD MSTORE POP JUMP JUMPDEST PUSH1 0x0 PUSH2 0x11C8 PUSH1 0x4 DUP4 PUSH2 0xEEE JUMP JUMPDEST SWAP2 POP PUSH2 0x11D3 DUP3 PUSH2 0x1192 JUMP JUMPDEST PUSH1 0x20 DUP3 ADD SWAP1 POP SWAP2 SWAP1 POP JUMP JUMPDEST PUSH1 0x0 PUSH1 0x40 DUP3 ADD SWAP1 POP PUSH2 0x11F3 PUSH1 0x0 DUP4 ADD DUP5 PUSH2 0x1183 JUMP JUMPDEST DUP2 DUP2 SUB PUSH1 0x20 DUP4 ADD MSTORE PUSH2 0x1204 DUP2 PUSH2 0x11BB JUMP JUMPDEST SWAP1 POP SWAP3 SWAP2 POP POP JUMP JUMPDEST PUSH32 0x57696E0000000000000000000000000000000000000000000000000000000000 PUSH1 0x0 DUP3 ADD MSTORE POP JUMP JUMPDEST PUSH1 0x0 PUSH2 0x1242 PUSH1 0x3 DUP4 PUSH2 0xEEE JUMP JUMPDEST SWAP2 POP PUSH2 0x124D DUP3 PUSH2 0x120C JUMP JUMPDEST PUSH1 0x20 DUP3 ADD SWAP1 POP SWAP2 SWAP1 POP JUMP JUMPDEST PUSH1 0x0 PUSH1 0x40 DUP3 ADD SWAP1 POP PUSH2 0x126D PUSH1 0x0 DUP4 ADD DUP5 PUSH2 0x1183 JUMP JUMPDEST DUP2 DUP2 SUB PUSH1 0x20 DUP4 ADD MSTORE PUSH2 0x127E DUP2 PUSH2 0x1235 JUMP JUMPDEST SWAP1 POP SWAP3 SWAP2 POP POP JUMP JUMPDEST PUSH32 0x4C6F736500000000000000000000000000000000000000000000000000000000 PUSH1 0x0 DUP3 ADD MSTORE POP JUMP JUMPDEST PUSH1 0x0 PUSH2 0x12BC PUSH1 0x4 DUP4 PUSH2 0xEEE JUMP JUMPDEST SWAP2 POP PUSH2 0x12C7 DUP3 PUSH2 0x1286 JUMP JUMPDEST PUSH1 0x20 DUP3 ADD SWAP1 POP SWAP2 SWAP1 POP JUMP JUMPDEST PUSH1 0x0 PUSH1 0x40 DUP3 ADD SWAP1 POP PUSH2 0x12E7 PUSH1 0x0 DUP4 ADD DUP5 PUSH2 0x1183 JUMP JUMPDEST DUP2 DUP2 SUB PUSH1 0x20 DUP4 ADD MSTORE PUSH2 0x12F8 DUP2 PUSH2 0x12AF JUMP JUMPDEST SWAP1 POP SWAP3 SWAP2 POP POP JUMP JUMPDEST PUSH32 0x4E487B7100000000000000000000000000000000000000000000000000000000 PUSH1 0x0 MSTORE PUSH1 0x11 PUSH1 0x4 MSTORE PUSH1 0x24 PUSH1 0x0 REVERT JUMPDEST PUSH1 0x0 PUSH2 0x133A DUP3 PUSH2 0xE00 JUMP JUMPDEST SWAP2 POP PUSH2 0x1345 DUP4 PUSH2 0xE00 JUMP JUMPDEST SWAP3 POP DUP3 DUP3 MUL PUSH2 0x1353 DUP2 PUSH2 0xE00 JUMP JUMPDEST SWAP2 POP DUP3 DUP3 DIV DUP5 EQ DUP4 ISZERO OR PUSH2 0x136A JUMPI PUSH2 0x1369 PUSH2 0x1300 JUMP JUMPDEST JUMPDEST POP SWAP3 SWAP2 POP POP JUMP INVALID LOG2 PUSH5 0x6970667358 0x22 SLT KECCAK256 0xE1 DUP6 0xE6 PUSH27 0x74E71305840DFCA76DFC7D508AB9236483D1841825D6D6443F036B 0xA9 PUSH5 0x736F6C6343 STOP ADDMOD SLT STOP CALLER "
				},
				"gasEstimates": {
					"creation": {
						"codeDepositCost": "1006200",
						"executionCost": "47419",
						"totalCost": "1053619"
					},
					"external": {
						"betAmount()": "2429",
						"owner()": "2578",
						"play(uint256)": "infinite",
						"player1()": "2536",
						"player1Choice()": "2473",
						"player2()": "2537",
						"player2Choice()": "2430",
						"winner()": "2580"
					},
					"internal": {
						"payWinner(address payable,uint256)": "infinite",
						"resetGame()": "58623",
						"resolveGame()": "infinite"
					}
				},
				"methodIdentifiers": {
					"betAmount()": "d24257c0",
					"owner()": "8da5cb5b",
					"play(uint256)": "6898f82b",
					"player1()": "d30895e4",
					"player1Choice()": "d8b1f219",
					"player2()": "59a5f12d",
					"player2Choice()": "0ce6e680",
					"winner()": "dfbf53ae"
				}
			},
			"storageLayout": {
				"storage": [
					{
						"astId": 3,
						"contract": "contracts/rps.sol:RockPaperScissors",
						"label": "owner",
						"offset": 0,
						"slot": "0",
						"type": "t_address"
					},
					{
						"astId": 5,
						"contract": "contracts/rps.sol:RockPaperScissors",
						"label": "player1",
						"offset": 0,
						"slot": "1",
						"type": "t_address"
					},
					{
						"astId": 7,
						"contract": "contracts/rps.sol:RockPaperScissors",
						"label": "player2",
						"offset": 0,
						"slot": "2",
						"type": "t_address"
					},
					{
						"astId": 10,
						"contract": "contracts/rps.sol:RockPaperScissors",
						"label": "betAmount",
						"offset": 0,
						"slot": "3",
						"type": "t_uint256"
					},
					{
						"astId": 12,
						"contract": "contracts/rps.sol:RockPaperScissors",
						"label": "player1Choice",
						"offset": 0,
						"slot": "4",
						"type": "t_uint256"
					},
					{
						"astId": 14,
						"contract": "contracts/rps.sol:RockPaperScissors",
						"label": "player2Choice",
						"offset": 0,
						"slot": "5",
						"type": "t_uint256"
					},
					{
						"astId": 16,
						"contract": "contracts/rps.sol:RockPaperScissors",
						"label": "winner",
						"offset": 0,
						"slot": "6",
						"type": "t_address"
					}
				],
				"types": {
					"t_address": {
						"encoding": "inplace",
						"label": "address",
						"numberOfBytes": "20"
					},
					"t_uint256": {
						"encoding": "inplace",
						"label": "uint256",
						"numberOfBytes": "32"
					}
				}
			},
			"userdoc": {
				"kind": "user",
				"methods": {},
				"version": 1
			}
		}
	}
}